{
  "_format": "hh-sol-artifact-1",
  "contractName": "CampaignKeeper",
  "sourceName": "contracts/CampaignKeeper.sol",
  "abi": [
    {
      "inputs": [
        {
          "internalType": "address payable",
          "name": "_divarProxy",
          "type": "address"
        }
      ],
      "stateMutability": "nonpayable",
      "type": "constructor"
    },
    {
      "anonymous": false,
      "inputs": [
        {
          "indexed": true,
          "internalType": "address",
          "name": "campaign",
          "type": "address"
        },
        {
          "indexed": true,
          "internalType": "uint256",
          "name": "roundNumber",
          "type": "uint256"
        },
        {
          "indexed": false,
          "internalType": "bool",
          "name": "success",
          "type": "bool"
        },
        {
          "indexed": false,
          "internalType": "uint256",
          "name": "timestamp",
          "type": "uint256"
        }
      ],
      "name": "CampaignFinalized",
      "type": "event"
    },
    {
      "inputs": [],
      "name": "CHECK_INTERVAL",
      "outputs": [
        {
          "internalType": "uint256",
          "name": "",
          "type": "uint256"
        }
      ],
      "stateMutability": "view",
      "type": "function"
    },
    {
      "inputs": [
        {
          "internalType": "bytes",
          "name": "",
          "type": "bytes"
        }
      ],
      "name": "checkUpkeep",
      "outputs": [
        {
          "internalType": "bool",
          "name": "upkeepNeeded",
          "type": "bool"
        },
        {
          "internalType": "bytes",
          "name": "performData",
          "type": "bytes"
        }
      ],
      "stateMutability": "view",
      "type": "function"
    },
    {
      "inputs": [
        {
          "internalType": "bytes",
          "name": "data",
          "type": "bytes"
        }
      ],
      "name": "decodeFinalize",
      "outputs": [
        {
          "internalType": "string",
          "name": "",
          "type": "string"
        },
        {
          "internalType": "address",
          "name": "",
          "type": "address"
        },
        {
          "internalType": "uint256",
          "name": "",
          "type": "uint256"
        }
      ],
      "stateMutability": "pure",
      "type": "function"
    },
    {
      "inputs": [],
      "name": "divarProxy",
      "outputs": [
        {
          "internalType": "contract DivarProxy",
          "name": "",
          "type": "address"
        }
      ],
      "stateMutability": "view",
      "type": "function"
    },
    {
      "inputs": [
        {
          "internalType": "address",
          "name": "campaign",
          "type": "address"
        }
      ],
      "name": "isCampaignRegistered",
      "outputs": [
        {
          "internalType": "bool",
          "name": "",
          "type": "bool"
        }
      ],
      "stateMutability": "view",
      "type": "function"
    },
    {
      "inputs": [],
      "name": "lastCheckTime",
      "outputs": [
        {
          "internalType": "uint256",
          "name": "",
          "type": "uint256"
        }
      ],
      "stateMutability": "view",
      "type": "function"
    },
    {
      "inputs": [
        {
          "internalType": "bytes",
          "name": "performData",
          "type": "bytes"
        }
      ],
      "name": "performUpkeep",
      "outputs": [],
      "stateMutability": "nonpayable",
      "type": "function"
    },
    {
      "inputs": [
        {
          "internalType": "address",
          "name": "campaign",
          "type": "address"
        }
      ],
      "name": "registerCampaign",
      "outputs": [],
      "stateMutability": "nonpayable",
      "type": "function"
    },
    {
      "inputs": [
        {
          "internalType": "address",
          "name": "",
          "type": "address"
        }
      ],
      "name": "registeredCampaigns",
      "outputs": [
        {
          "internalType": "bool",
          "name": "",
          "type": "bool"
        }
      ],
      "stateMutability": "view",
      "type": "function"
    }
  ],
  "bytecode": "0x60a0346100bb57601f610b4d38819003918201601f19168301916001600160401b038311848410176100c0578084926020946040528339810103126100bb57516001600160a01b038116908190036100bb5780156100845760805242600155604051610a7690816100d7823960805181818161011b0152818161021a01526104730152f35b60405162461bcd60e51b815260206004820152600f60248201526e496e76616c6964206164647265737360881b6044820152606490fd5b600080fd5b634e487b7160e01b600052604160045260246000fdfe604060808152600436101561001357600080fd5b600090813560e01c8063030aae55146102645780634585e33b1461024957806366ddaa2b146102065780636e04ff0d146101c75780636ea33ceb146101ab5780636fbc31bb146100a357806375860d84146100e657806388b939e0146100a35763d655c6911461008257600080fd5b3461009f578160031936011261009f576020906001549051908152f35b5080fd5b503461009f57602036600319011261009f576004356001600160a01b038116908190036100e257818360ff926020955280855220541690519015158152f35b8280fd5b503461009f57602036600319011261009f576004356001600160a01b03818116918290036101a757610119821515610a02565b7f0000000000000000000000000000000000000000000000000000000000000000163303610157578252816020528120600160ff1982541617905580f35b815162461bcd60e51b8152602060048201526024808201527f4b45455045523a204f6e6c7920446976617250726f78792063616e207265676960448201526339ba32b960e11b6064820152608490fd5b8380fd5b503461009f578160031936011261009f5760209051610e108152f35b50903461020357506101d836610318565b50506101ff6101e561044e565b83929192519384931515845280602085015283019061038a565b0390f35b80fd5b503461009f578160031936011261009f57517f00000000000000000000000000000000000000000000000000000000000000006001600160a01b03168152602090f35b82346102035761026161025b36610318565b90610779565b80f35b5090346102035761027436610318565b81939101906060848303126100e257833567ffffffffffffffff81116101a75784019282601f850112156102035783356102ad81610432565b946102ba845196876103af565b8186526020948583830101116100e257818392868093018389013786010152828501356001600160a01b0381169190829003610203575061030a948291825196879660608852606088019061038a565b948601520135908301520390f35b9060206003198301126103625760043567ffffffffffffffff9283821161036257806023830112156103625781600401359384116103625760248483010111610362576024019190565b600080fd5b60005b83811061037a5750506000910152565b818101518382015260200161036a565b906020916103a381518092818552858086019101610367565b601f01601f1916010190565b90601f8019910116810190811067ffffffffffffffff8211176103d157604052565b634e487b7160e01b600052604160045260246000fd5b51906001600160a01b038216820361036257565b805182101561040f5760209160051b010190565b634e487b7160e01b600052603260045260246000fd5b5190811515820361036257565b67ffffffffffffffff81116103d157601f01601f191660200190565b604080516321b37d8160e21b81526001600160a01b03926000926004929190848385817f00000000000000000000000000000000000000000000000000000000000000008a165afa92831561076f5785936106ba575b50845b835181101561067c57866104bb82866103fb565b511615158061065c575b6104ee575b60001981146104db576001016104a7565b634e487b7160e01b865260118552602486fd5b866104f982866103fb565b5116868351809263a32bf59760e01b825281896101009586935afa82938391808594869387936105f2575b5050610536575b5050505050506104ca565b846105e9575b50836105c8575b50505061055457808080808061052b565b96919390610564919693966103fb565b511682519560608060208901526008608089015260a0926746494e414c495a4560c01b848a015285890152870152855260c085019285841067ffffffffffffffff8511176105b55750505260019190565b634e487b7160e01b825260419052602490fd5b421192509082156105de575b5050388080610543565b1015905038806105d4565b1593503861053c565b95509650945050505082813d8311610655575b61060f81836103af565b8101031261065157815190848301519260608101519060a08101519261064360e061063c60c08501610425565b9301610425565b949592939194903880610524565b8780fd5b503d610605565b508661066882866103fb565b511686528560205260ff82872054166104c5565b509294509290508093825192602084019184831067ffffffffffffffff8411176106a7575052815290565b634e487b7160e01b845260419052602483fd5b9092503d8086833e6106cc81836103af565b8101602090818382031261076b57825167ffffffffffffffff93848211610754570181601f82011215610651578051938411610758578360051b90865194610716858401876103af565b85528380860192820101928311610754578301905b82821061073d575050505091386104a4565b838091610749846103e7565b81520191019061072b565b8880fd5b634e487b7160e01b885260418752602488fd5b8680fd5b81513d87823e3d90fd5b9060449291600091426001558260409182519687809263030aae5560e01b825280602097886004850152816024850152848401378181018301859052601f01601f19168101030181305afa92808482978396610974575b506107df575b50505050509050565b805190840120825167ffffffffffffffff97919080850189811182821017610960578552600881526746494e414c495a4560c01b908601527feb2ff47e6ce34825013b5c94ab14ff22f5f415e17c7d6e26651677473137c10b016107d6576001600160a01b031692610852841515610a02565b83825281815260ff83832054161561091d57833b1561009f578251631e82032560e01b8152828160048183895af197886108d4575b50507f2d322b06db5d47273782fccac05934160de122c3536976e6aa37be2b53768c5493949596156000146108c35782519182524290820152a3565b9050815190600182524290820152a3565b81989398116109095783529095907f2d322b06db5d47273782fccac05934160de122c3536976e6aa37be2b53768c5438610887565b634e487b7160e01b88526041600452602488fd5b60649083519062461bcd60e51b82526004820152601f60248201527f4b45455045523a2043616d706169676e206e6f742072656769737465726564006044820152fd5b634e487b7160e01b85526041600452602485fd5b97509450503d8082883e61098881886103af565b86019560608188031261009f57805167ffffffffffffffff81116100e257810187601f820112156100e2578051906109bf82610432565b986109cc86519a8b6103af565b828a528683830101116101a757906109e99186808b019101610367565b826109f58583016103e7565b91015196909694386107d0565b15610a0957565b60405162461bcd60e51b815260206004820152600f60248201526e496e76616c6964206164647265737360881b6044820152606490fdfea2646970667358221220f22ab9a5ac1d79fc570108f0fd4df985c2fe409f1ee74a5defdc25ed4900b7c264736f6c63430008140033",
  "linkReferences": {},
  "deployedLinkReferences": {}
}