{
  "_format": "hh-sol-artifact-1",
  "contractName": "DivarProxy",
  "sourceName": "contracts/DivarProxy.sol",
  "abi": [
    {
      "inputs": [],
      "stateMutability": "nonpayable",
      "type": "constructor"
    },
    {
      "anonymous": false,
      "inputs": [
        {
          "indexed": false,
          "internalType": "address",
          "name": "previousAdmin",
          "type": "address"
        },
        {
          "indexed": false,
          "internalType": "address",
          "name": "newAdmin",
          "type": "address"
        }
      ],
      "name": "AdminChanged",
      "type": "event"
    },
    {
      "anonymous": false,
      "inputs": [
        {
          "indexed": true,
          "internalType": "address",
          "name": "beacon",
          "type": "address"
        }
      ],
      "name": "BeaconUpgraded",
      "type": "event"
    },
    {
      "anonymous": false,
      "inputs": [
        {
          "indexed": true,
          "internalType": "address",
          "name": "campaignAddress",
          "type": "address"
        },
        {
          "indexed": true,
          "internalType": "address",
          "name": "creator",
          "type": "address"
        },
        {
          "indexed": false,
          "internalType": "string",
          "name": "name",
          "type": "string"
        },
        {
          "indexed": false,
          "internalType": "uint256",
          "name": "timestamp",
          "type": "uint256"
        }
      ],
      "name": "CampaignCreated",
      "type": "event"
    },
    {
      "anonymous": false,
      "inputs": [
        {
          "indexed": true,
          "internalType": "address",
          "name": "campaignAddress",
          "type": "address"
        },
        {
          "indexed": false,
          "internalType": "uint256",
          "name": "totalInvestors",
          "type": "uint256"
        },
        {
          "indexed": false,
          "internalType": "uint256",
          "name": "totalFundsRaised",
          "type": "uint256"
        },
        {
          "indexed": false,
          "internalType": "uint256",
          "name": "timestamp",
          "type": "uint256"
        }
      ],
      "name": "CampaignMetricsUpdated",
      "type": "event"
    },
    {
      "anonymous": false,
      "inputs": [
        {
          "indexed": true,
          "internalType": "address",
          "name": "campaignAddress",
          "type": "address"
        },
        {
          "indexed": false,
          "internalType": "bool",
          "name": "success",
          "type": "bool"
        }
      ],
      "name": "CampaignRegisteredForUpkeep",
      "type": "event"
    },
    {
      "anonymous": false,
      "inputs": [
        {
          "indexed": false,
          "internalType": "string",
          "name": "category",
          "type": "string"
        },
        {
          "indexed": true,
          "internalType": "address",
          "name": "campaignAddress",
          "type": "address"
        }
      ],
      "name": "CategoryAdded",
      "type": "event"
    },
    {
      "anonymous": false,
      "inputs": [
        {
          "indexed": false,
          "internalType": "uint8",
          "name": "version",
          "type": "uint8"
        }
      ],
      "name": "Initialized",
      "type": "event"
    },
    {
      "anonymous": false,
      "inputs": [
        {
          "indexed": true,
          "internalType": "address",
          "name": "newNFTRenderer",
          "type": "address"
        }
      ],
      "name": "NFTRendererUpdated",
      "type": "event"
    },
    {
      "anonymous": false,
      "inputs": [
        {
          "indexed": true,
          "internalType": "address",
          "name": "previousOwner",
          "type": "address"
        },
        {
          "indexed": true,
          "internalType": "address",
          "name": "newOwner",
          "type": "address"
        }
      ],
      "name": "OwnershipTransferred",
      "type": "event"
    },
    {
      "anonymous": false,
      "inputs": [
        {
          "indexed": false,
          "internalType": "address",
          "name": "account",
          "type": "address"
        }
      ],
      "name": "Paused",
      "type": "event"
    },
    {
      "anonymous": false,
      "inputs": [
        {
          "indexed": false,
          "internalType": "bool",
          "name": "isPaused",
          "type": "bool"
        }
      ],
      "name": "PlatformStatusChanged",
      "type": "event"
    },
    {
      "anonymous": false,
      "inputs": [
        {
          "indexed": true,
          "internalType": "address",
          "name": "newPriceConsumer",
          "type": "address"
        }
      ],
      "name": "PriceConsumerUpdated",
      "type": "event"
    },
    {
      "anonymous": false,
      "inputs": [
        {
          "indexed": true,
          "internalType": "address",
          "name": "campaignAddress",
          "type": "address"
        },
        {
          "indexed": true,
          "internalType": "uint256",
          "name": "roundNumber",
          "type": "uint256"
        },
        {
          "indexed": false,
          "internalType": "uint256",
          "name": "currentFunding",
          "type": "uint256"
        },
        {
          "indexed": false,
          "internalType": "uint256",
          "name": "remainingTime",
          "type": "uint256"
        }
      ],
      "name": "RoundProgressUpdated",
      "type": "event"
    },
    {
      "anonymous": false,
      "inputs": [
        {
          "indexed": true,
          "internalType": "address",
          "name": "oldTreasury",
          "type": "address"
        },
        {
          "indexed": true,
          "internalType": "address",
          "name": "newTreasury",
          "type": "address"
        }
      ],
      "name": "TreasuryUpdated",
      "type": "event"
    },
    {
      "anonymous": false,
      "inputs": [
        {
          "indexed": false,
          "internalType": "address",
          "name": "account",
          "type": "address"
        }
      ],
      "name": "Unpaused",
      "type": "event"
    },
    {
      "anonymous": false,
      "inputs": [
        {
          "indexed": true,
          "internalType": "address",
          "name": "implementation",
          "type": "address"
        }
      ],
      "name": "Upgraded",
      "type": "event"
    },
    {
      "stateMutability": "payable",
      "type": "fallback"
    },
    {
      "inputs": [
        {
          "internalType": "uint256",
          "name": "",
          "type": "uint256"
        }
      ],
      "name": "allCampaigns",
      "outputs": [
        {
          "internalType": "address",
          "name": "",
          "type": "address"
        }
      ],
      "stateMutability": "view",
      "type": "function"
    },
    {
      "inputs": [],
      "name": "campaignBytecode",
      "outputs": [
        {
          "internalType": "bytes",
          "name": "",
          "type": "bytes"
        }
      ],
      "stateMutability": "view",
      "type": "function"
    },
    {
      "inputs": [],
      "name": "campaignKeeper",
      "outputs": [
        {
          "internalType": "address",
          "name": "",
          "type": "address"
        }
      ],
      "stateMutability": "view",
      "type": "function"
    },
    {
      "inputs": [
        {
          "internalType": "address",
          "name": "",
          "type": "address"
        }
      ],
      "name": "campaignRegistry",
      "outputs": [
        {
          "internalType": "address",
          "name": "campaignAddress",
          "type": "address"
        },
        {
          "internalType": "address",
          "name": "creator",
          "type": "address"
        },
        {
          "internalType": "uint256",
          "name": "creationTime",
          "type": "uint256"
        },
        {
          "internalType": "uint256",
          "name": "targetAmount",
          "type": "uint256"
        },
        {
          "internalType": "string",
          "name": "category",
          "type": "string"
        },
        {
          "internalType": "bool",
          "name": "isActive",
          "type": "bool"
        },
        {
          "internalType": "string",
          "name": "name",
          "type": "string"
        },
        {
          "internalType": "string",
          "name": "metadata",
          "type": "string"
        },
        {
          "internalType": "string",
          "name": "logo",
          "type": "string"
        },
        {
          "internalType": "address",
          "name": "escrowAddress",
          "type": "address"
        }
      ],
      "stateMutability": "view",
      "type": "function"
    },
    {
      "inputs": [
        {
          "internalType": "string",
          "name": "",
          "type": "string"
        },
        {
          "internalType": "uint256",
          "name": "",
          "type": "uint256"
        }
      ],
      "name": "campaignsByCategory",
      "outputs": [
        {
          "internalType": "address",
          "name": "",
          "type": "address"
        }
      ],
      "stateMutability": "view",
      "type": "function"
    },
    {
      "inputs": [
        {
          "internalType": "address",
          "name": "",
          "type": "address"
        },
        {
          "internalType": "uint256",
          "name": "",
          "type": "uint256"
        }
      ],
      "name": "campaignsByCreator",
      "outputs": [
        {
          "internalType": "address",
          "name": "",
          "type": "address"
        }
      ],
      "stateMutability": "view",
      "type": "function"
    },
    {
      "inputs": [
        {
          "internalType": "address",
          "name": "_user",
          "type": "address"
        }
      ],
      "name": "checkUserStatus",
      "outputs": [
        {
          "internalType": "uint256",
          "name": "campaignCount",
          "type": "uint256"
        }
      ],
      "stateMutability": "view",
      "type": "function"
    },
    {
      "inputs": [
        {
          "internalType": "string",
          "name": "_name",
          "type": "string"
        },
        {
          "internalType": "string",
          "name": "_symbol",
          "type": "string"
        },
        {
          "internalType": "uint256",
          "name": "_targetAmount",
          "type": "uint256"
        },
        {
          "internalType": "uint256",
          "name": "_sharePrice",
          "type": "uint256"
        },
        {
          "internalType": "uint256",
          "name": "_endTime",
          "type": "uint256"
        },
        {
          "internalType": "string",
          "name": "_category",
          "type": "string"
        },
        {
          "internalType": "string",
          "name": "_metadata",
          "type": "string"
        },
        {
          "internalType": "uint96",
          "name": "_royaltyFee",
          "type": "uint96"
        },
        {
          "internalType": "string",
          "name": "_logo",
          "type": "string"
        },
        {
          "internalType": "string",
          "name": "_nftBackgroundColor",
          "type": "string"
        },
        {
          "internalType": "string",
          "name": "_nftTextColor",
          "type": "string"
        },
        {
          "internalType": "string",
          "name": "_nftLogoUrl",
          "type": "string"
        },
        {
          "internalType": "string",
          "name": "_nftSector",
          "type": "string"
        }
      ],
      "name": "createCampaign",
      "outputs": [],
      "stateMutability": "payable",
      "type": "function"
    },
    {
      "inputs": [],
      "name": "getAllCampaigns",
      "outputs": [
        {
          "internalType": "address[]",
          "name": "",
          "type": "address[]"
        }
      ],
      "stateMutability": "view",
      "type": "function"
    },
    {
      "inputs": [],
      "name": "getCampaignCreationFeeETH",
      "outputs": [
        {
          "internalType": "uint256",
          "name": "",
          "type": "uint256"
        }
      ],
      "stateMutability": "view",
      "type": "function"
    },
    {
      "inputs": [
        {
          "internalType": "address",
          "name": "_campaign",
          "type": "address"
        }
      ],
      "name": "getCampaignRegistry",
      "outputs": [
        {
          "components": [
            {
              "internalType": "address",
              "name": "campaignAddress",
              "type": "address"
            },
            {
              "internalType": "address",
              "name": "creator",
              "type": "address"
            },
            {
              "internalType": "uint256",
              "name": "creationTime",
              "type": "uint256"
            },
            {
              "internalType": "uint256",
              "name": "targetAmount",
              "type": "uint256"
            },
            {
              "internalType": "string",
              "name": "category",
              "type": "string"
            },
            {
              "internalType": "bool",
              "name": "isActive",
              "type": "bool"
            },
            {
              "internalType": "string",
              "name": "name",
              "type": "string"
            },
            {
              "internalType": "string",
              "name": "metadata",
              "type": "string"
            },
            {
              "internalType": "string",
              "name": "logo",
              "type": "string"
            },
            {
              "internalType": "address",
              "name": "escrowAddress",
              "type": "address"
            }
          ],
          "internalType": "struct DivarStorage.CampaignInfo",
          "name": "",
          "type": "tuple"
        }
      ],
      "stateMutability": "view",
      "type": "function"
    },
    {
      "inputs": [
        {
          "internalType": "string",
          "name": "_category",
          "type": "string"
        }
      ],
      "name": "getCampaignsByCategory",
      "outputs": [
        {
          "internalType": "address[]",
          "name": "",
          "type": "address[]"
        }
      ],
      "stateMutability": "view",
      "type": "function"
    },
    {
      "inputs": [
        {
          "internalType": "address",
          "name": "_creator",
          "type": "address"
        }
      ],
      "name": "getCampaignsByCreator",
      "outputs": [
        {
          "internalType": "address[]",
          "name": "",
          "type": "address[]"
        }
      ],
      "stateMutability": "view",
      "type": "function"
    },
    {
      "inputs": [],
      "name": "getVersion",
      "outputs": [
        {
          "internalType": "string",
          "name": "",
          "type": "string"
        }
      ],
      "stateMutability": "pure",
      "type": "function"
    },
    {
      "inputs": [
        {
          "internalType": "address",
          "name": "_treasury",
          "type": "address"
        },
        {
          "internalType": "address",
          "name": "_campaignKeeper",
          "type": "address"
        },
        {
          "internalType": "address",
          "name": "_priceConsumer",
          "type": "address"
        },
        {
          "internalType": "address",
          "name": "_nftRenderer",
          "type": "address"
        }
      ],
      "name": "initialize",
      "outputs": [],
      "stateMutability": "nonpayable",
      "type": "function"
    },
    {
      "inputs": [],
      "name": "nftRenderer",
      "outputs": [
        {
          "internalType": "address",
          "name": "",
          "type": "address"
        }
      ],
      "stateMutability": "view",
      "type": "function"
    },
    {
      "inputs": [],
      "name": "owner",
      "outputs": [
        {
          "internalType": "address",
          "name": "",
          "type": "address"
        }
      ],
      "stateMutability": "view",
      "type": "function"
    },
    {
      "inputs": [],
      "name": "paused",
      "outputs": [
        {
          "internalType": "bool",
          "name": "",
          "type": "bool"
        }
      ],
      "stateMutability": "view",
      "type": "function"
    },
    {
      "inputs": [],
      "name": "priceConsumer",
      "outputs": [
        {
          "internalType": "address",
          "name": "",
          "type": "address"
        }
      ],
      "stateMutability": "view",
      "type": "function"
    },
    {
      "inputs": [],
      "name": "proxiableUUID",
      "outputs": [
        {
          "internalType": "bytes32",
          "name": "",
          "type": "bytes32"
        }
      ],
      "stateMutability": "view",
      "type": "function"
    },
    {
      "inputs": [],
      "name": "renounceOwnership",
      "outputs": [],
      "stateMutability": "nonpayable",
      "type": "function"
    },
    {
      "inputs": [
        {
          "internalType": "bytes",
          "name": "_bytecode",
          "type": "bytes"
        }
      ],
      "name": "setCampaignBytecode",
      "outputs": [],
      "stateMutability": "nonpayable",
      "type": "function"
    },
    {
      "inputs": [
        {
          "internalType": "address",
          "name": "_keeper",
          "type": "address"
        }
      ],
      "name": "setCampaignKeeper",
      "outputs": [],
      "stateMutability": "nonpayable",
      "type": "function"
    },
    {
      "inputs": [
        {
          "internalType": "address",
          "name": "_nftRenderer",
          "type": "address"
        }
      ],
      "name": "setNFTRenderer",
      "outputs": [],
      "stateMutability": "nonpayable",
      "type": "function"
    },
    {
      "inputs": [],
      "name": "togglePause",
      "outputs": [],
      "stateMutability": "nonpayable",
      "type": "function"
    },
    {
      "inputs": [
        {
          "internalType": "address",
          "name": "newOwner",
          "type": "address"
        }
      ],
      "name": "transferOwnership",
      "outputs": [],
      "stateMutability": "nonpayable",
      "type": "function"
    },
    {
      "inputs": [],
      "name": "treasury",
      "outputs": [
        {
          "internalType": "address",
          "name": "",
          "type": "address"
        }
      ],
      "stateMutability": "view",
      "type": "function"
    },
    {
      "inputs": [
        {
          "internalType": "address",
          "name": "_newPriceConsumer",
          "type": "address"
        }
      ],
      "name": "updatePriceConsumer",
      "outputs": [],
      "stateMutability": "nonpayable",
      "type": "function"
    },
    {
      "inputs": [
        {
          "internalType": "address",
          "name": "_newTreasury",
          "type": "address"
        }
      ],
      "name": "updateTreasury",
      "outputs": [],
      "stateMutability": "nonpayable",
      "type": "function"
    },
    {
      "inputs": [
        {
          "internalType": "address",
          "name": "newImplementation",
          "type": "address"
        }
      ],
      "name": "upgradeTo",
      "outputs": [],
      "stateMutability": "nonpayable",
      "type": "function"
    },
    {
      "inputs": [
        {
          "internalType": "address",
          "name": "newImplementation",
          "type": "address"
        },
        {
          "internalType": "bytes",
          "name": "data",
          "type": "bytes"
        }
      ],
      "name": "upgradeToAndCall",
      "outputs": [],
      "stateMutability": "payable",
      "type": "function"
    },
    {
      "stateMutability": "payable",
      "type": "receive"
    }
  ],
  "bytecode": "0x60a080604052346100dd57306080526000549060ff8260081c1661008b575060ff80821603610050575b604051612e2c9081620000e382396080518181816106e801528181610b990152610cae0152f35b60ff90811916176000557f7f26b83ff96e1f2b6a682f133852f6798a09c465da95921460cefb3847402498602060405160ff8152a138610029565b62461bcd60e51b815260206004820152602760248201527f496e697469616c697a61626c653a20636f6e747261637420697320696e697469604482015266616c697a696e6760c81b6064820152608490fd5b600080fdfe60806040526004361015610018575b36612d2557612ce0565b60003560e01c806305342b34146102085780630a5301c3146102035780630a73b7de146101fe5780630d8e6e2c146101f95780633659cfe6146101f4578063410e9385146101ef57806342acda26146101ea57806345f5b737146101e5578063461a758c146101e05780634f1ef286146101db57806352d1902d146101d65780635c975abb146101d157806361d027b3146101cc5780636d5d12c5146101c7578063715018a6146101c2578063774e85fd146101bd5780637f51bb1f146101b857806386cdf604146101b35780638da5cb5b146101ae578063a509f4d1146101a9578063a88432c5146101a4578063b7e527cc1461019f578063bb9475f21461019a578063bff7848114610195578063c03af7df14610190578063c4ae31681461018b578063d5b8d84a14610186578063eba9866014610181578063ee63f95a1461017c578063f2fde38b146101775763f8c8765e0361000e57611771565b6116e4565b6116c1565b611697565b61161c565b6114f3565b6114a8565b61144f565b611342565b61128d565b6111c3565b611168565b61113f565b6110bb565b611029565b610f4f565b610e1e565b610db0565b610d83565b610d60565b610c9b565b610b5c565b610b33565b610a9c565b610910565b61080e565b6106c5565b610669565b6105bb565b6104e0565b610379565b634e487b7160e01b600052604160045260246000fd5b61014081019081106001600160401b0382111761023f57604052565b61020d565b6001600160401b03811161023f57604052565b602081019081106001600160401b0382111761023f57604052565b606081019081106001600160401b0382111761023f57604052565b90601f801991011681019081106001600160401b0382111761023f57604052565b604051906102bb82610223565b565b6040519061018082018281106001600160401b0382111761023f57604052565b6040519060a082018281106001600160401b0382111761023f57604052565b6001600160401b03811161023f57601f01601f191660200190565b81601f8201121561035e5780359061032e826102fc565b9261033c604051948561028d565b8284526020838301011161035e57816000926020809301838601378301015290565b600080fd5b60e435906001600160601b038216820361035e57565b6101a036600319011261035e5760046001600160401b03813581811161035e576103a69036908401610317565b9060243581811161035e576103be9036908501610317565b9160a43582811161035e576103d69036908601610317565b60c43583811161035e576103ed9036908701610317565b6103f5610363565b6101043585811161035e5761040d9036908901610317565b916101243586811161035e576104269036908a01610317565b936101443587811161035e5761043f9036908b01610317565b956101643588811161035e576104589036908c01610317565b976101843590811161035e576104869a61047491369101610317565b986084359160643591604435916120fe565b005b600435906001600160a01b038216820361035e57565b602435906001600160a01b038216820361035e57565b604435906001600160a01b038216820361035e57565b606435906001600160a01b038216820361035e57565b3461035e57602036600319011261035e576104f9610488565b610501611877565b6001600160a01b0316610515811515611d65565b6001600160601b0360a01b6006541617600655600080f35b60005b8381106105405750506000910152565b8181015183820152602001610530565b906105636020928281519485920161052d565b0190565b602061058091816040519382858094519384920161052d565b8101600481520301902090565b80548210156105a55760005260206000200190600090565b634e487b7160e01b600052603260045260246000fd5b3461035e57604036600319011261035e576004356001600160401b03811161035e576105eb903690600401610317565b6105f760243591610567565b805482101561035e5760209161060c9161058d565b905460405160039290921b1c6001600160a01b03168152f35b600091031261035e57565b906020916106498151809281855285808601910161052d565b601f01601f1916010190565b906020610666928181520190610630565b90565b3461035e57600036600319011261035e5760405160408101908082106001600160401b0383111761023f576106c19160405260058152640312e302e360dc1b6020820152604051918291602083526020830190610630565b0390f35b3461035e57602036600319011261035e576106de610488565b6001600160a01b037f00000000000000000000000000000000000000000000000000000000000000008116919061071730841415611918565b610734600080516020612dd7833981519152938285541614611979565b61073c611877565b6040519061074982610257565b600082527f4910fdfa16fed3260ed0e7147f7cc6da11a60208b5b9406d12a635614ffd91435460ff16156107835750506104869150611aa2565b6020600491604094939451928380926352d1902d60e01b825286165afa600091816107de575b506107cb5760405162461bcd60e51b8152806107c760048201611a53565b0390fd5b610486936107d991146119f5565b611b32565b61080091925060203d8111610807575b6107f8818361028d565b8101906119da565b90386107a9565b503d6107ee565b3461035e57602036600319011261035e576001600160a01b0361082f610488565b1660005260036020526020604060002054604051908152f35b602080825282516001600160a01b0316908201526106669060208301516001600160a01b03166040820152604083015160608201526060830151608082015260808301516108a4610140918260a0850152610160840190610630565b60a0850151151560c08401526108ff6108cf60c087015192601f1993848783030160e0880152610630565b6108ea60e08801519161010092858883030184890152610630565b90870151610120938683030184870152610630565b9401516001600160a01b0316910152565b3461035e57602036600319011261035e576106c161092c610488565b610a4c60405161093b81610223565b610a3d6009600094858452856020850152856040850152604060609680888701528760808701528060a08701528760c08701528760e0870152610100928884880152816101208098015260018060a01b031681526002602052209061099e6102ae565b82546001600160a01b031681529660018301546001600160a01b03166020890152600283015460408901526003830154908801526109de600483016111ec565b60808801526109fd6109f4600584015460ff1690565b151560a0890152565b610a09600683016111ec565b60c0880152610a1a600783016111ec565b60e0880152610a2b600883016111ec565b9087015201546001600160a01b031690565b6001600160a01b031690830152565b60405191829182610848565b6020908160408183019282815285518094520193019160005b828110610a7f575050505090565b83516001600160a01b031685529381019392810192600101610a71565b3461035e5760208060031936011261035e576004356001600160401b03811161035e57610ad0610ad5913690600401610317565b610567565b90604051908181845491828152019360005281600020916000905b828210610b13576106c185610b078189038261028d565b60405191829182610a58565b83546001600160a01b031686529485019460019384019390910190610af0565b3461035e57600036600319011261035e576001546040516001600160a01b039091168152602090f35b604036600319011261035e57610b70610488565b6024356001600160401b03811161035e57610b8f903690600401610317565b6001600160a01b037f00000000000000000000000000000000000000000000000000000000000000008116929190610bc930851415611918565b610be6600080516020612dd7833981519152948286541614611979565b610bee611877565b7f4910fdfa16fed3260ed0e7147f7cc6da11a60208b5b9406d12a635614ffd91435460ff1615610c245750506104869150611aa2565b6020600491604094939451928380926352d1902d60e01b825286165afa60009181610c7b575b50610c685760405162461bcd60e51b8152806107c760048201611a53565b61048693610c7691146119f5565b611bee565b610c9491925060203d8111610807576107f8818361028d565b9038610c4a565b3461035e57600036600319011261035e577f00000000000000000000000000000000000000000000000000000000000000006001600160a01b03163003610cf557604051600080516020612dd78339815191528152602090f35b60405162461bcd60e51b815260206004820152603860248201527f555550535570677261646561626c653a206d757374206e6f742062652063616c60448201527f6c6564207468726f7567682064656c656761746563616c6c00000000000000006064820152608490fd5b3461035e57600036600319011261035e57602060ff60fe54166040519015158152f35b3461035e57600036600319011261035e5760005460405160109190911c6001600160a01b03168152602090f35b3461035e57602036600319011261035e57610dc9610488565b610dd1611877565b6001600160a01b0316610de5811515611d65565b600180546001600160a01b031916821790557fae7da98cf481089371a92501a2fb4ae6214e6601161b9e5fceef423e3693a277600080a2005b3461035e57600080600319360112610e7c57610e38611877565b606880546001600160a01b0319811690915581906001600160a01b03167f8be0079c531659141344cd1fd0a4f28419497f9722a3daafe3b4186f6b6457e08280a380f35b80fd5b90600182811c92168015610eaf575b6020831014610e9957565b634e487b7160e01b600052602260045260246000fd5b91607f1691610e8e565b9060009291805491610eca83610e7f565b918282526001938481169081600014610f2c5750600114610eec575b50505050565b90919394506000526020928360002092846000945b838610610f18575050505001019038808080610ee6565b805485870183015294019385908201610f01565b9294505050602093945060ff191683830152151560051b01019038808080610ee6565b3461035e57600080600319360112610e7c57604051908061013090815490610f7682610e7f565b80865292600192808416908115610ffc5750600114610fb4575b6106c186610fa08188038261028d565b604051918291602083526020830190610630565b81529250600080516020612db78339815191525b828410610fe4575050508101602001610fa0826106c138610f90565b80546020858701810191909152909301928101610fc8565b90508695506106c196935060209250610fa094915060ff191682840152151560051b820101929338610f90565b3461035e57602036600319011261035e57611042610488565b61104a611877565b6001600160a01b03818116919061109490611066841515611d65565b6000805462010000600160b01b03601095861b1662010000600160b01b031982161790915590921c90911690565b7f4ab5be82436d353e61ca18726e984e561f5c1cc7c6d38b29d2553c790434705a600080a3005b3461035e57600036600319011261035e57604051806005549182815260208091019260056000527f036b6384b5eca791c62761152d0c79bb0604c104a5fb6f4eb0703f3154bb3db0916000905b82821061111f576106c185610b078189038261028d565b83546001600160a01b031686529485019460019384019390910190611108565b3461035e57600036600319011261035e576068546040516001600160a01b039091168152602090f35b3461035e57602036600319011261035e5760043560055481101561035e5760056000527f036b6384b5eca791c62761152d0c79bb0604c104a5fb6f4eb0703f3154bb3db001546040516001600160a01b039091168152602090f35b3461035e57600036600319011261035e576006546040516001600160a01b039091168152602090f35b906102bb6112009260405193848092610eb9565b038361028d565b9894966112546112699398611277966101209b969d9e9d60408e6112869c9760018060a01b039e8f8092168352166020820152015260608d015260808c61014091829101528c0190610630565b91151560a08b015289820360c08b0152610630565b9087820360e0890152610630565b90858203610100870152610630565b9416910152565b3461035e57602036600319011261035e576001600160a01b03806112af610488565b1660005260026020526040600020906106c181835416916001840154169260028101549060038101546040516112f3816112ec8160048701610eb9565b038261028d565b600583015460ff16611307600685016111ec565b91611314600786016111ec565b936113356009611326600889016111ec565b9701546001600160a01b031690565b966040519a8b9a8b611207565b3461035e5760208060031936011261035e576001600160401b039060043582811161035e57611375903690600401610317565b9161137e611877565b825190811161023f576101309161139e826113998554610e7f565b61200a565b80601f83116001146113d957508192936000926113ce575b5050600019600383901b1c191660019190911b179055005b0151905038806113b6565b90601f198316946113fb610130600052600080516020612db783398151915290565b926000905b87821061143757505083600195961061141e575b505050811b019055005b015160001960f88460031b161c19169055388080611414565b80600185968294968601518155019501930190611400565b3461035e57604036600319011261035e57611468610488565b6024359060018060a01b0380911660005260036020526040600020805483101561035e576020926114989161058d565b90549060031b1c16604051908152f35b3461035e57602036600319011261035e576114c1610488565b6114c9611877565b6001600160a01b03166114dd811515611d65565b61013180546001600160a01b0319169091179055005b3461035e57600036600319011261035e5761150c611877565b60fe5460ff8116156115da575060fe5460ff81161561159e5760ff191660fe557f5db9ee0a495bf2e6ff9c91a7834c1ba4fdd244a5e8aa4e537bd38aeae4b073aa6020604051338152a15b7f388d0d32f1d37f44ac37e8647da27de9f267cb133039debb4750503dea94757761159961158760fe5460ff1690565b60405190151581529081906020820190565b0390a1005b60405162461bcd60e51b815260206004820152601460248201527314185d5cd8589b194e881b9bdd081c185d5cd95960621b6044820152606490fd5b6001906115e5612a88565b60ff19161760fe557f62e78cea01bee320cd4e420270b5ea74000d11b0c9f74754ebdbfc544b05a2586020604051338152a1611557565b3461035e5760208060031936011261035e576001600160a01b038061163f610488565b1660005260038252604060002091604051809282855492838152019460005282600020926000915b83831061167e576106c186610b07818a038261028d565b8454811687529581019560019485019490920191611667565b3461035e57600036600319011261035e57610131546040516001600160a01b039091168152602090f35b3461035e57600036600319011261035e5760206116dc612094565b604051908152f35b3461035e57602036600319011261035e576116fd610488565b611705611877565b6001600160a01b0381161561171d57610486906118cf565b60405162461bcd60e51b815260206004820152602660248201527f4f776e61626c653a206e6577206f776e657220697320746865207a65726f206160448201526564647265737360d01b6064820152608490fd5b3461035e57608036600319011261035e5761178a610488565b6117e761179561049e565b61179d6104b4565b6117a56104ca565b91600054946117cb60ff8760081c161580978198611869575b8115611849575b50611d02565b856117de600160ff196000541617600055565b61183057611da3565b6117ed57005b6117fd61ff001960005416600055565b604051600181527f7f26b83ff96e1f2b6a682f133852f6798a09c465da95921460cefb3847402498908060208101611599565b61184461010061ff00196000541617600055565b611da3565b303b1591508161185b575b50386117c5565b6001915060ff161438611854565b600160ff82161091506117be565b6068546001600160a01b0316330361188b57565b606460405162461bcd60e51b815260206004820152602060248201527f4f776e61626c653a2063616c6c6572206973206e6f7420746865206f776e65726044820152fd5b606880546001600160a01b039283166001600160a01b0319821681179092559091167f8be0079c531659141344cd1fd0a4f28419497f9722a3daafe3b4186f6b6457e0600080a3565b1561191f57565b60405162461bcd60e51b815260206004820152602c60248201527f46756e6374696f6e206d7573742062652063616c6c6564207468726f7567682060448201526b19195b1959d85d1958d85b1b60a21b6064820152608490fd5b1561198057565b60405162461bcd60e51b815260206004820152602c60248201527f46756e6374696f6e206d7573742062652063616c6c6564207468726f7567682060448201526b6163746976652070726f787960a01b6064820152608490fd5b9081602091031261035e575190565b6040513d6000823e3d90fd5b156119fc57565b60405162461bcd60e51b815260206004820152602960248201527f45524331393637557067726164653a20756e737570706f727465642070726f786044820152681a58589b195555525160ba1b6064820152608490fd5b60809060208152602e60208201527f45524331393637557067726164653a206e657720696d706c656d656e7461746960408201526d6f6e206973206e6f74205555505360901b60608201520190565b803b15611ad757600080516020612dd783398151915280546001600160a01b0319166001600160a01b03909216919091179055565b60405162461bcd60e51b815260206004820152602d60248201527f455243313936373a206e657720696d706c656d656e746174696f6e206973206e60448201526c1bdd08184818dbdb9d1c9858dd609a1b6064820152608490fd5b90611b3c82611aa2565b6001600160a01b0382167fbc7cd75a20ee27fd9adebab32041f755214dbc6bffa90cc0225b39da2e5c2d3b600080a2805115801590611be6575b611b7e575050565b611be39160008060405193611b9285610272565b602785527f416464726573733a206c6f772d6c6576656c2064656c65676174652063616c6c6020860152660819985a5b195960ca1b6040860152602081519101845af4611bdd611c41565b91611c71565b50565b506000611b76565b90611bf882611aa2565b6001600160a01b0382167fbc7cd75a20ee27fd9adebab32041f755214dbc6bffa90cc0225b39da2e5c2d3b600080a2805115801590611c3957611b7e575050565b506001611b76565b3d15611c6c573d90611c52826102fc565b91611c60604051938461028d565b82523d6000602084013e565b606090565b91929015611cd35750815115611c85575090565b3b15611c8e5790565b60405162461bcd60e51b815260206004820152601d60248201527f416464726573733a2063616c6c20746f206e6f6e2d636f6e74726163740000006044820152606490fd5b825190915015611ce65750805190602001fd5b60405162461bcd60e51b81529081906107c79060048301610655565b15611d0957565b60405162461bcd60e51b815260206004820152602e60248201527f496e697469616c697a61626c653a20636f6e747261637420697320616c72656160448201526d191e481a5b9a5d1a585b1a5e995960921b6064820152608490fd5b15611d6c57565b60405162461bcd60e51b815260206004820152600f60248201526e496e76616c6964206164647265737360881b6044820152606490fd5b90916001600160a01b0380831615929190611dbe8415611d65565b611dcb8186161515611d65565b8082161590611dda8215611d65565b8616151593611de885611d65565b611df960ff60005460081c16611f3e565b611ef957611eb4576102bb94611e58611e7592611e18611e8296612d6a565b6000805462010000600160b01b031916601087901b62010000600160b01b031617905560018060a01b03166001600160601b0360a01b6001541617600155565b60018060a01b03166001600160601b0360a01b6006541617600655565b611e7d611f9e565b6118cf565b611e8a611fc1565b611e92611fd2565b61013180546001600160a01b0319166001600160a01b03909216919091179055565b60405162461bcd60e51b815260206004820152601d60248201527f44495641523a20496e76616c696420707269636520636f6e73756d65720000006044820152606490fd5b60405162461bcd60e51b815260206004820152601760248201527f44495641523a20496e76616c69642074726561737572790000000000000000006044820152606490fd5b15611f4557565b60405162461bcd60e51b815260206004820152602b60248201527f496e697469616c697a61626c653a20636f6e7472616374206973206e6f74206960448201526a6e697469616c697a696e6760a81b6064820152608490fd5b611fb860ff60005460081c16611fb381611f3e565b611f3e565b6102bb336118cf565b6102bb60ff60005460081c16611f3e565b611fe760ff60005460081c16611fb381611f3e565b60ff1960fe541660fe55565b818110611ffe575050565b60008155600101611ff3565b90601f8211612017575050565b6102bb91610130600052600080516020612db7833981519152906020601f840160051c83019310612050575b601f0160051c0190611ff3565b9091508190612043565b9190601f811161206957505050565b6102bb926000526020600020906020601f840160051c8301931061205057601f0160051c0190611ff3565b600154604051630462fa6d60e31b8152612134600482015266038d7ea4c68000602482015290602090829060449082906001600160a01b03165afa9081156120f9576000916120e1575090565b610666915060203d8111610807576107f8818361028d565b6119e9565b9b91959a909997989294968c94612113612a88565b85511515612120906123d2565b61212b881515612415565b612136871515612459565b61214142821161249c565b612149612094565b341015612155906124e8565b6101305461216290610e7f565b151561216d9061252b565b600054349060101c6001600160a01b03166001600160a01b03169061219191612acc565b60005460101c6001600160a01b0316610131549091906001600160a01b0316976121b96102bd565b33815297602089015260408089019e909e52606088018a9052608088015260a08701526001600160a01b031660c08601526001600160601b031660e08501523361010085810191909152976101208581018d905230610140870152956001600160a01b03166101608601526006546001600160a01b0316936122396102dd565b6001600160a01b03909516855260208501528a840152606083015260808201528751918291602083019161226c926125dd565b0390601f19918281018252612281908261028d565b875191826020810192612293846126f2565b61229c91610550565b0381810184526122ac908461028d565b88516020810191816122c0428f3387612781565b0390810182526122d0908261028d565b5190209151906000f56001600160a01b038116979095869590916122f58a15156127b5565b6122fd6102ae565b6001600160a01b03881681529433602087015242868b0152606086015260808501869052600160a086015260c085018b905260e085015283015260009082018190526001600160a01b03841681526002602052604090209061235e916128cf565b3360009081526003602052604090208261237791612a31565b61238090610567565b9061238a91612a31565b612393816129cd565b61239c90612ba7565b5051803393426123ac9183612a6c565b037f011e52f88446cffe402f824c74be32fb23411b1333a3d5df3b2b25c94d06502691a3565b156123d957565b60405162461bcd60e51b815260206004820152601460248201527311125590548e8813985b59481c995c5d5a5c995960621b6044820152606490fd5b1561241c57565b60405162461bcd60e51b815260206004820152601560248201527411125590548e88125b9d985b1a59081d185c99d95d605a1b6044820152606490fd5b1561246057565b60405162461bcd60e51b815260206004820152601460248201527344495641523a20496e76616c696420707269636560601b6044820152606490fd5b156124a357565b60405162461bcd60e51b815260206004820152601760248201527f44495641523a20496e76616c696420656e642074696d650000000000000000006044820152606490fd5b156124ef57565b60405162461bcd60e51b815260206004820152601460248201527344495641523a20496e636f72726563742066656560601b6044820152606490fd5b1561253257565b60405162461bcd60e51b815260206004820152601960248201527f43616d706169676e2062797465636f6465206e6f7420736574000000000000006044820152606490fd5b6106669160018060a01b03825116815260806125cc6125ba6125a8602086015160a0602087015260a0860190610630565b60408601518582036040870152610630565b60608501518482036060860152610630565b920151906080818403910152610630565b604080825282516001600160a01b03169082015261066692906126e5602084015193612617610180958660608601526101c0850190610630565b906126d2612637604083015193603f199485888303016080890152610630565b96606083015160a0870152608083015160c087015260a083015160e08701526126bf60c0840151986126766101009a8b8a019060018060a01b03169052565b60e0850151996126946101209b8c8b01906001600160601b03169052565b8501516001600160a01b031661014089810191909152998501516101609689830301878a0152610630565b978301516001600160a01b031690860152565b01516001600160a01b03166101a0830152565b6020818403910152612577565b9060009161013090815461270581610e7f565b9260019180831690811561276657506001146127215750505050565b909192939450600052600080516020612db7833981519152906000915b84831061275357505050019038808080610ee6565b818160209254858701520192019161273e565b60ff1916845250505081151590910201915038808080610ee6565b60349392916001600160601b03199060601b1681526127aa82518093602060148501910161052d565b019060148201520190565b156127bc57565b60405162461bcd60e51b815260206004820152601a60248201527f43616d706169676e206465706c6f796d656e74206661696c65640000000000006044820152606490fd5b91909182516001600160401b03811161023f57612828816128228454610e7f565b8461205a565b602080601f8311600114612864575081929394600092612859575b50508160011b916000199060031b1c1916179055565b015190503880612843565b90601f1983169561287a85600052602060002090565b926000905b8882106128b75750508360019596971061289e575b505050811b019055565b015160001960f88460031b161c19169055388080612894565b8060018596829496860151815501950193019061287f565b815181546001600160a01b0319166001600160a01b039091161781556102bb916009906129ac906101209060208101516001860180546001600160a01b0319166001600160a01b039092169190911790556040810151600286015560608101516003860155612945608082015160048701612801565b61296a61295560a0830151151590565b600587019060ff801983541691151516179055565b61297b60c082015160068701612801565b61298c60e082015160078701612801565b61299e61010082015160088701612801565b01516001600160a01b031690565b910180546001600160a01b0319166001600160a01b03909216919091179055565b600554600160401b81101561023f5760018101806005558110156105a55760056000527f036b6384b5eca791c62761152d0c79bb0604c104a5fb6f4eb0703f3154bb3db00180546001600160a01b0319166001600160a01b03909216919091179055565b8054600160401b81101561023f57612a4e9160018201815561058d565b819291549060031b9160018060a01b03809116831b921b1916179055565b929190612a83602091604086526040860190610630565b930152565b60ff60fe5416612a9457565b60405162461bcd60e51b815260206004820152601060248201526f14185d5cd8589b194e881c185d5cd95960821b6044820152606490fd5b814710612b62576000918291829182916001600160a01b03165af1612aef611c41565b5015612af757565b60405162461bcd60e51b815260206004820152603a60248201527f416464726573733a20756e61626c6520746f2073656e642076616c75652c207260448201527f6563697069656e74206d617920686176652072657665727465640000000000006064820152608490fd5b60405162461bcd60e51b815260206004820152601d60248201527f416464726573733a20696e73756666696369656e742062616c616e63650000006044820152606490fd5b61013154612bcb90612bbf906001600160a01b031681565b6001600160a01b031690565b90813b1561035e57604051631d61836160e21b81526001600160a01b038216600482015260009283908290602490829084905af19081612ccd575b50612c4857604051600081526001600160a01b0391909116907f3f1ed54f314f8b571daceba87434e070f712a1edb43f3b3b64090ff6671c67d690602090a290565b6001600160a01b031690813b15610e7c57604051634470e47f60e11b815260016004820152908160248183865af180156120f957612cb4575b50604051600181527f3f1ed54f314f8b571daceba87434e070f712a1edb43f3b3b64090ff6671c67d690602090a2600190565b80612cc1612cc792610244565b80610625565b38612c81565b80612cc1612cda92610244565b38612c06565b60405162461bcd60e51b815260206004820152601d60248201527f446972656374207472616e7366657273206e6f742061636365707465640000006044820152606490fd5b60405162461bcd60e51b815260206004820152601760248201527f46756e6374696f6e20646f6573206e6f742065786973740000000000000000006044820152606490fd5b15612d7157565b60405162461bcd60e51b815260206004820152601b60248201527f44495641523a20496e76616c6964206e66742072656e646572657200000000006044820152606490fdfe2f605e086faac1d93117bbfbc18835d434e9405fadc1ca66faf4b864746daf34360894a13ba1a3210667c828492db98dca3e2076cc3735a920a3ca505d382bbca26469706673582212200d9fd0ead598e229d02e6ef1a5504ba5432f658919485246b4a740ebed1770b464736f6c63430008140033",
  "linkReferences": {},
  "deployedLinkReferences": {}
}