{
  "_format": "hh-sol-artifact-1",
  "contractName": "NFTRenderer",
  "sourceName": "contracts/NFTRenderer.sol",
  "abi": [
    {
      "inputs": [
        {
          "internalType": "uint256",
          "name": "tokenId",
          "type": "uint256"
        },
        {
          "internalType": "string",
          "name": "campaignName",
          "type": "string"
        },
        {
          "internalType": "address",
          "name": "startup",
          "type": "address"
        },
        {
          "components": [
            {
              "internalType": "string",
              "name": "backgroundColor",
              "type": "string"
            },
            {
              "internalType": "string",
              "name": "textColor",
              "type": "string"
            },
            {
              "internalType": "string",
              "name": "logoData",
              "type": "string"
            },
            {
              "internalType": "bool",
              "name": "dividendsEnabled",
              "type": "bool"
            },
            {
              "internalType": "bool",
              "name": "airdropsEnabled",
              "type": "bool"
            },
            {
              "internalType": "bool",
              "name": "revenueSplitEnabled",
              "type": "bool"
            },
            {
              "internalType": "bool",
              "name": "customRewardEnabled",
              "type": "bool"
            },
            {
              "internalType": "string",
              "name": "customRewardName",
              "type": "string"
            }
          ],
          "internalType": "struct SharesStorage.NFTVisualConfig",
          "name": "nftConfig",
          "type": "tuple"
        }
      ],
      "name": "generateNFTSVG",
      "outputs": [
        {
          "internalType": "string",
          "name": "",
          "type": "string"
        }
      ],
      "stateMutability": "view",
      "type": "function"
    },
    {
      "inputs": [
        {
          "internalType": "uint256",
          "name": "tokenId",
          "type": "uint256"
        },
        {
          "internalType": "string",
          "name": "campaignName",
          "type": "string"
        },
        {
          "internalType": "address",
          "name": "startup",
          "type": "address"
        },
        {
          "components": [
            {
              "internalType": "string",
              "name": "backgroundColor",
              "type": "string"
            },
            {
              "internalType": "string",
              "name": "textColor",
              "type": "string"
            },
            {
              "internalType": "string",
              "name": "logoData",
              "type": "string"
            },
            {
              "internalType": "bool",
              "name": "dividendsEnabled",
              "type": "bool"
            },
            {
              "internalType": "bool",
              "name": "airdropsEnabled",
              "type": "bool"
            },
            {
              "internalType": "bool",
              "name": "revenueSplitEnabled",
              "type": "bool"
            },
            {
              "internalType": "bool",
              "name": "customRewardEnabled",
              "type": "bool"
            },
            {
              "internalType": "string",
              "name": "customRewardName",
              "type": "string"
            }
          ],
          "internalType": "struct SharesStorage.NFTVisualConfig",
          "name": "nftConfig",
          "type": "tuple"
        }
      ],
      "name": "generateTokenURI",
      "outputs": [
        {
          "internalType": "string",
          "name": "",
          "type": "string"
        }
      ],
      "stateMutability": "view",
      "type": "function"
    },
    {
      "inputs": [
        {
          "internalType": "uint256",
          "name": "tokenId",
          "type": "uint256"
        }
      ],
      "name": "getNFTInfo",
      "outputs": [
        {
          "internalType": "uint256",
          "name": "round",
          "type": "uint256"
        },
        {
          "internalType": "uint256",
          "name": "number",
          "type": "uint256"
        }
      ],
      "stateMutability": "pure",
      "type": "function"
    }
  ],
  "bytecode": "0x6080806040523461001657613e6c908161001c8239f35b600080fdfe610160604052600436101561001357600080fd5b6000803560e01c8063bd4b24eb146108ff578063d188929f146108d55763e548569a1461003f57600080fd5b346108d25761004d36610a0e565b909261005b82858584610bb1565b94620f424093610070858404958406936135b8565b9561007a846135b8565b9661008d61008788613a1d565b99613cb9565b966100b26100ac6100a66100a084613a1d565b936135b8565b976135b8565b9361388c565b8751602089015160608a01519094919290156108c4576100d0613c80565b975b60808b0151156108b45760a06100e6613c80565b9b5b01511590506108a6576100f9613c80565b9a5b6040519d8e9d8e94602086017f7b226e616d65223a22000000000000000000000000000000000000000000000090528a5160208c0196816029820190610141918a610b62565b01602981017f205368617265202300000000000000000000000000000000000000000000000090528151918260318301916020019161017f92610b62565b01603181017f222c226465736372697074696f6e223a22496e766573746d656e7420736861729052605181017f65202300000000000000000000000000000000000000000000000000000000009052815191826054830191602001916101e492610b62565b01605481017f2066726f6d200000000000000000000000000000000000000000000000000000905281519182605a8301916020019161022292610b62565b01605a81017f20737461676500000000000000000000000000000000000000000000000000009052606081017f206f66200000000000000000000000000000000000000000000000000000000090528851908160648201906102849187610b62565b7f2e2054686973204e465420726570726573656e7473206f776e65727368697020606492909101918201527f616e642070726f76696465732061636365737320746f206469766964656e647360848201527f20616e6420676f7665726e616e6365207269676874732e222c0000000000000060a48201527f22696d616765223a22646174613a696d6167652f7376672b786d6c3b6261736560bd8201527f36342c000000000000000000000000000000000000000000000000000000000060dd82015281519161035d90839060e0840190602001610b62565b0160e081017f222c2261747472696275746573223a5b00000000000000000000000000000000905260f081017f7b2274726169745f74797065223a2243616d706169676e222c2276616c75652290527f3a220000000000000000000000000000000000000000000000000000000000009788610110830152519061011293828583016103e892610b62565b01917f227d2c0000000000000000000000000000000000000000000000000000000000998a9788968786818098968197015261011581017f7b2274726169745f74797065223a2246756e64696e67205374616765222c227690527f616c7565223a22000000000000000000000000000000000000000000000000008060a05261013582015282519061013c9382858301916020019161048692610b62565b019182015261013f81017f7b2274726169745f74797065223a22526f756e64204e756d626572222c22766190527f6c7565223a0000000000000000000000000000000000000000000000000000008060805261015f820152825190610164938285830191602001916104f792610b62565b018060e0527f7d2c000000000000000000000000000000000000000000000000000000000000928391015260e051610166017f7b2274726169745f74797065223a225368617265204e756d626572222c227661905260805160e051610186015261018b908160c0528051809260e05101916020019161057592610b62565b60e051019060c05182015261018d81017f7b2274726169745f74797065223a2243726561746f72222c2276616c7565223a90526101ad81017f220000000000000000000000000000000000000000000000000000000000000090528251906101ae938285830191602001916105e992610b62565b01918201526101b181017f7b2274726169745f74797065223a224261636b67726f756e6420436f6c6f722290526101d181017f2c2276616c7565223a220000000000000000000000000000000000000000000090528251906101db9382858301916020019161065792610b62565b01918201526101de81017f7b2274726169745f74797065223a225465787420436f6c6f72222c2276616c7590526101fe81017f65223a22000000000000000000000000000000000000000000000000000000009052825190610202938285830191602001916106c592610b62565b019182015261020581017f7b2274726169745f74797065223a224469766964656e6473222c2276616c7565905261022581017f223a22000000000000000000000000000000000000000000000000000000000090528351906102289482868301916020019161073392610b62565b019283015261022b82017f7b2274726169745f74797065223a2241697264726f7073222c2276616c756522905261024b82015282519061024d9382858301916020019161077f92610b62565b019182015261025081017f7b2274726169745f74797065223a22526576656e75652053706c6974222c2276905260a051610270820152815190610277928284830191602001916107ce92610b62565b019081017f227d000000000000000000000000000000000000000000000000000000000000905261027981017f5d7d00000000000000000000000000000000000000000000000000000000000090520361025b8101825261027b016108339082610977565b61083c90613cb9565b6040518091602082017f646174613a6170706c69636174696f6e2f6a736f6e3b6261736536342c000000905280519081603d8401916020019161087e92610b62565b810103601d81018252603d016108949082610977565b6040516108a2819282610b85565b0390f35b6108ae613c47565b9a6100fb565b60a06108be613c47565b9b6100e8565b6108cc613c47565b976100d2565b80fd5b50346108d25760203660031901126108d25760408051620f42406004358181048352066020820152f35b50346108d2576108a261091d61091436610a0e565b92919091610bb1565b60405191829182610b85565b6020810190811067ffffffffffffffff82111761094557604052565b634e487b7160e01b600052604160045260246000fd5b6040810190811067ffffffffffffffff82111761094557604052565b90601f8019910116810190811067ffffffffffffffff82111761094557604052565b67ffffffffffffffff811161094557601f01601f191660200190565b81601f820112156109fc578035906109cc82610999565b926109da6040519485610977565b828452602083830101116109fc57816000926020809301838601378301015290565b600080fd5b359081151582036109fc57565b600319916080828401126109fc5760049081359360243567ffffffffffffffff908181116109fc5785610a429186016109b5565b9460443573ffffffffffffffffffffffffffffffffffffffff811681036109fc5794606435928084116109fc57610100809585850301126109fc5760405194850185811082821117610b4d57604052838201358181116109fc578383610aaa928701016109b5565b855260248401358181116109fc578383610ac6928701016109b5565b602086015260448401358181116109fc578383610ae5928701016109b5565b6040860152610af660648501610a01565b6060860152610b0760848501610a01565b6080860152610b1860a48501610a01565b60a0860152610b2960c48501610a01565b60c086015260e48401359081116109fc57610b459301016109b5565b60e082015290565b604183634e487b7160e01b6000525260246000fd5b60005b838110610b755750506000910152565b8181015183820152602001610b65565b60409160208252610ba58151809281602086015260208686019101610b62565b601f01601f1916010190565b929190928261014052825191610bcb6020850151946136fb565b61014051610bdf602082519201519361388c565b602061014051015190610bf1866135b8565b92602061014051015195620f424095610c1e610c0e888b04613a1d565b9760206101405101519a066135b8565b9960206101405101519b610c313361388c565b610100526040519d8e610c4381610929565b600081529e60329060606101405101516132a7575b50608061014051015115158061329b575b613051575b60a0610140510151151580613045575b612dc0575b506127bb612db99f9d9a926102b19f9d976129889b6127c860209f996020989d60839d6127bb9f8b966127bb947f222066696c6c2d6f7061636974793d22302e32222066696c7465723d2275726c6127699f7f3c7265637420783d2233302220793d22323830222077696474683d2233343022661e17ba32bc3a1f60c91b956128ba9f60829e7f2220666f6e742d73697a653d2231362220666f6e742d66616d696c793d2241728f927f3c73766720786d6c6e733d22687474703a2f2f7777772e77332e6f72672f32307f222066696c6c2d6f7061636974793d22302e39222066696c7465723d2275726c94604051806101205201527f30302f737667222076696577426f783d2230203020343030203630302220737460406101205101527f796c653d226261636b67726f756e643a000000000000000000000000000000006060610120510152845190610de2826070610120510160208901610b62565b7f223e000000000000000000000000000000000000000000000000000000000000607083610120510101527f3c646566733e0000000000000000000000000000000000000000000000000000607283610120510101527f3c6c696e6561724772616469656e742069643d227072696d6172794772616469607883610120510101527f656e74222078313d223025222079313d223025222078323d2231303025222079609883610120510101527f323d2231303025223e000000000000000000000000000000000000000000000060b883610120510101527f3c73746f70206f66667365743d223025222073746f702d636f6c6f723d22233660c183610120510101527f3637656561222073746f702d6f7061636974793d22302e38223e00000000000060e183610120510101527f3c616e696d617465206174747269627574654e616d653d2273746f702d6f706160fb83610120510101527f63697479222076616c7565733d22302e383b313b302e3822206475723d22337361011b83610120510101527f2220726570656174436f756e743d22696e646566696e697465222f3e0000000061013b8361012051010152661e17b9ba37b81f60c91b61015783610120510101527f3c73746f70206f66667365743d22353025222073746f702d636f6c6f723d222361015e83610120510101527f373634626132222073746f702d6f7061636974793d22302e36223e000000000061017e83610120510101527f3c616e696d617465206174747269627574654e616d653d2273746f702d6f706161019983610120510101527f63697479222076616c7565733d22302e363b302e393b302e3622206475723d226101b983610120510101527f34732220726570656174436f756e743d22696e646566696e697465222f3e00006101d98361012051010152661e17b9ba37b81f60c91b6101f783610120510101527f3c73746f70206f66667365743d2231303025222073746f702d636f6c6f723d226101fe83610120510101527f23663039336662222073746f702d6f7061636974793d22302e34223e0000000061021e83610120510101527f3c616e696d617465206174747269627574654e616d653d2273746f702d6f706161023a83610120510101527f63697479222076616c7565733d22302e343b302e373b302e3422206475723d2261025a83610120510101527f35732220726570656174436f756e743d22696e646566696e697465222f3e000061027a8361012051010152661e17b9ba37b81f60c91b61029883610120510101527f3c2f6c696e6561724772616469656e743e0000000000000000000000000000008061029f84610120510101527f3c6c696e6561724772616469656e742069643d226c6971756964476c617373226102b084610120510101527f2078313d223025222079313d223025222078323d2231303025222079323d22316102d084610120510101527f303025223e0000000000000000000000000000000000000000000000000000006102f084610120510101527f3c73746f70206f66667365743d223025222073746f702d636f6c6f723d2223666102f584610120510101527f6666666666222073746f702d6f7061636974793d22302e32223e00000000000061031584610120510101527f3c616e696d617465206174747269627574654e616d653d2273746f702d6f706161032f84610120510101527f63697479222076616c7565733d22302e323b302e343b302e3222206475723d2261034f84610120510101527f33732220726570656174436f756e743d22696e646566696e697465222f3e000061036f8461012051010152661e17b9ba37b81f60c91b61038d84610120510101527f3c73746f70206f66667365743d22353025222073746f702d636f6c6f723d222361039484610120510101527f363466666461222073746f702d6f7061636974793d22302e33223e00000000006103b484610120510101527f3c616e696d617465206174747269627574654e616d653d2273746f702d6f70616103cf84610120510101527f63697479222076616c7565733d22302e333b302e353b302e3322206475723d226103ef84610120510101527f34732220726570656174436f756e743d22696e646566696e697465222f3e000061040f8461012051010152661e17b9ba37b81f60c91b61042d84610120510101527f3c73746f70206f66667365743d2231303025222073746f702d636f6c6f723d2261043484610120510101527f23666636623662222073746f702d6f7061636974793d22302e31222f3e000000610454846101205101015261047183610120510101527f3c72616469616c4772616469656e742069643d22636972636c65476c6f77222061048283610120510101527f63783d22353025222063793d223530252220723d22353025223e0000000000006104a283610120510101527f3c73746f70206f66667365743d223025222073746f702d636f6c6f723d2223346104bc83610120510101527f6661636665222073746f702d6f7061636974793d22302e36222f3e00000000006104dc83610120510101527f3c73746f70206f66667365743d2231303025222073746f702d636f6c6f723d226104f783610120510101527f23303066326665222073746f702d6f7061636974793d22302e32222f3e00000061051783610120510101527f3c2f72616469616c4772616469656e743e00000000000000000000000000000061053483610120510101527f3c66696c7465722069643d22676c6173732220783d222d3530252220793d222d61054583610120510101527f353025222077696474683d223230302522206865696768743d2232303025223e61056583610120510101527f3c6665476175737369616e426c757220696e3d22536f7572636547726170686961058583610120510101527f632220737464446576696174696f6e3d2232222f3e00000000000000000000006105a583610120510101527f3c66654f66667365742064783d2230222064793d22342220726573756c743d226105ba83610120510101527f6f6666736574222f3e00000000000000000000000000000000000000000000006105da83610120510101527f3c6665466c6f6f6420666c6f6f642d636f6c6f723d22236666666666662220666105e383610120510101527f6c6f6f642d6f7061636974793d22302e33222f3e00000000000000000000000061060383610120510101527f3c6665436f6d706f7369746520696e323d226f666673657422206f706572617461061783610120510101527f6f723d226f766572222f3e00000000000000000000000000000000000000000061063783610120510101527f3c2f66696c7465723e00000000000000000000000000000000000000000000008061064284610120510101527f3c66696c7465722069643d22676c6f77223e000000000000000000000000000061064b84610120510101527f3c6665476175737369616e426c757220737464446576696174696f6e3d22332261065d84610120510101527f20726573756c743d22636f6c6f726564426c7572222f3e00000000000000000061067d84610120510101527f3c66654d657267653e000000000000000000000000000000000000000000000061069484610120510101527f3c66654d657267654e6f646520696e3d22636f6c6f726564426c7572222f3e0061069d84610120510101527f3c66654d657267654e6f646520696e3d22536f7572636547726170686963222f6106bc84610120510101527f3e000000000000000000000000000000000000000000000000000000000000006106dc84610120510101527f3c2f66654d657267653e000000000000000000000000000000000000000000006106dd84610120510101526106e783610120510101527f3c2f646566733e000000000000000000000000000000000000000000000000006106f083610120510101527f3c726563742077696474683d2234303022206865696768743d22363030222066806106f784610120510101527f696c6c3d2275726c28237072696d6172794772616469656e742922206f70616361071784610120510101527f6974793d22302e39222f3e000000000000000000000000000000000000000000610737846101205101015261074283610120510101527f696c6c3d2275726c28236c6971756964476c6173732922206f7061636974793d61076283610120510101527f22302e36222f3e0000000000000000000000000000000000000000000000000061078283610120510101527f3c636972636c652063783d223830222063793d223132302220723d223132222061078983610120510101527f66696c6c3d2275726c2823636972636c65476c6f772922206f7061636974793d6107a983610120510101527f22302e37223e00000000000000000000000000000000000000000000000000006107c983610120510101527f3c616e696d6174655472616e73666f726d206174747269627574654e616d653d6107cf83610120510101527f227472616e73666f726d2220747970653d227472616e736c617465222076616c6107ef83610120510101527f7565733d22302c303b32352c2d31353b302c3022206475723d2237732220726561080f83610120510101527f70656174436f756e743d22696e646566696e697465222f3e000000000000000061082f83610120510101527f3c616e696d617465206174747269627574654e616d653d226f7061636974792261084783610120510101527f2076616c7565733d22302e373b313b302e3722206475723d223373222072657061086783610120510101527f656174436f756e743d22696e646566696e697465222f3e0000000000000000006108878361012051010152681e17b1b4b931b6329f60b91b61089e83610120510101527f3c636972636c652063783d22333230222063793d223435302220723d223138226108a783610120510101527f2066696c6c3d2275726c2823636972636c65476c6f772922206f7061636974796108c783610120510101527f3d22302e35223e000000000000000000000000000000000000000000000000006108e783610120510101527f3c616e696d6174655472616e73666f726d206174747269627574654e616d653d6108ee83610120510101527f227472616e73666f726d2220747970653d227472616e736c617465222076616c61090e83610120510101527f7565733d22302c303b2d32302c31323b302c3022206475723d2239732220726561092e83610120510101527f70656174436f756e743d22696e646566696e697465222f3e000000000000000061094e83610120510101527f3c616e696d617465206174747269627574654e616d653d226f7061636974792261096683610120510101527f2076616c7565733d22302e353b302e393b302e3522206475723d22347322207261098683610120510101527f6570656174436f756e743d22696e646566696e697465222f3e000000000000006109a68361012051010152681e17b1b4b931b6329f60b91b6109bf83610120510101527f3c636972636c652063783d223530222063793d223530302220723d22382220666109c883610120510101527f696c6c3d222366663662366222206f7061636974793d22302e36223e000000006109e883610120510101527f3c616e696d6174655472616e73666f726d206174747269627574654e616d653d610a0483610120510101527f227472616e73666f726d2220747970653d227472616e736c617465222076616c610a2483610120510101527f7565733d22302c303b31352c2d383b302c3022206475723d2235732220726570610a4483610120510101527f656174436f756e743d22696e646566696e697465222f3e000000000000000000610a648361012051010152681e17b1b4b931b6329f60b91b610a7b83610120510101527f3c636972636c652063783d22333530222063793d223138302220723d22313022610a8483610120510101527f2066696c6c3d222334666163666522206f7061636974793d22302e34223e0000610aa483610120510101527f3c616e696d6174655472616e73666f726d206174747269627574654e616d653d610ac283610120510101527f227472616e73666f726d2220747970653d227472616e736c617465222076616c610ae283610120510101527f7565733d22302c303b2d31322c32303b302c3022206475723d22387322207265610b0283610120510101527f70656174436f756e743d22696e646566696e697465222f3e0000000000000000610b228361012051010152681e17b1b4b931b6329f60b91b610b3a83610120510101527f3c7265637420783d2232302220793d223330222077696474683d223336302220610b4383610120510101527f6865696768743d22313030222072783d223230222066696c6c3d220000000000610b6383610120510101527f2220666f6e742d73697a653d2232342220666f6e742d7765696768743d22626f86517f222066696c6c2d6f7061636974793d22302e33222066696c7465723d2275726c610b7e6120b083828861012051010160208d01610b62565b828661012051010101526a1411b3b630b9b99491179f60a91b610b9e828661012051010101527f3c7465787420783d223230302220793d2237302220746578742d616e63686f72610ba9828661012051010101527f3d226d6964646c65222066696c6c3d2200000000000000000000000000000000610bc982866101205101010152855190610bd994612150838784846101205101010160208b01610b62565b61012051010101928301527f6c642220666f6e742d66616d696c793d22417269616c223e0000000000000000610bf983015261219881516020928193610c1186019101610b62565b818101610c1181018d90527f3c7465787420783d223230302220793d2239352220746578742d616e63686f72610c188201527f3d226d6964646c65222066696c6c3d2200000000000000000000000000000000610c388201528451610c489590939161220b918591880190602001610b62565b0101918201527f69616c22206f7061636974793d22302e38223e496e766573746d656e74205368610c688201527f6172653c2f746578743e00000000000000000000000000000000000000000000610c888201527f3c636972636c652063783d22323030222063793d223230302220723d22343822610c928201527f2066696c6c3d2275726c2823636972636c65476c6f772922206f706163697479610cb28201527f3d22302e33222066696c7465723d2275726c2823676c6f7729223e0000000000610cd28201527f3c616e696d617465206174747269627574654e616d653d2272222076616c7565610ced8201527f733d2234383b35323b343822206475723d2234732220726570656174436f756e610d0d8201527f743d22696e646566696e697465222f3e00000000000000000000000000000000610d2d820152681e17b1b4b931b6329f60b91b610d3d8201527f3c636972636c652063783d22323030222063793d223230302220723d22343222610d4682015266103334b6361e9160c91b610d668201528251906123ab82610d6d9560208785019101610b62565b01918201526a1411b3b630b9b99491179f60a91b610d8d8201527f3c636972636c652063783d22323030222063793d223230302220723d22343022610d988201527f207374726f6b653d2275726c28237072696d6172794772616469656e74292220610db88201527f7374726f6b652d77696474683d2233222066696c6c3d226e6f6e6522206f7061610dd88201527f636974793d22302e38223e000000000000000000000000000000000000000000610df88201527f3c616e696d617465206174747269627574654e616d653d227374726f6b652d77610e038201527f69647468222076616c7565733d22333b353b3322206475723d22337322207265610e238201527f70656174436f756e743d22696e646566696e697465222f3e0000000000000000610e43820152681e17b1b4b931b6329f60b91b610e5b82015282519061250082610e649560208785019101610b62565b01918201527f206865696768743d22323230222072783d223135222066696c6c3d2200000000610e8482015283519061254282610ea0968e8885019101610b62565b01928301526a1411b3b630b9b99491179f60a91b610ec08301527f3c7465787420783d2235302220793d22333130222066696c6c3d220000000000610ecb830152805161259681610ee685018c8501610b62565b7f2220666f6e742d73697a653d2231342220666f6e742d66616d696c793d224172610ee682850101527f69616c2220666f6e742d7765696768743d22363030223e4465706c6f7965723a610f06828501015283610f2682850101527f3c7465787420783d2235302220793d22333330222066696c6c3d220000000000610f2d8285010152612630825180938c610f48858801019101610b62565b7f2220666f6e742d73697a653d2231322220666f6e742d66616d696c793d226d6f8382018301610f48810191909152683737b9b830b1b2911f60b91b610f688201528551610f719690949161268b9186918901908e01610b62565b010101918201527f3c7465787420783d2235302220793d22333630222066696c6c3d220000000000610f788201528151917f2220666f6e742d73697a653d2231342220666f6e742d66616d696c793d22417287820193610f93936126f28286830188610b62565b01928301527f69616c2220666f6e742d7765696768743d22363030223e546f6b656e2049443a610fb3830152661e17ba32bc3a1f60c91b610fd38301527f3c7465787420783d223135302220793d22333630222066696c6c3d2200000000610fda830152519061276982610ff69485840190610b62565b01016025907f2220666f6e742d73697a653d2231342220666f6e742d66616d696c793d22417281527f69616c223e00000000000000000000000000000000000000000000000000000060208201520190565b9182815194859201610b62565b01661e17ba32bc3a1f60c91b81527f3c7465787420783d2235302220793d22333930222066696c6c3d2200000000006007820152875186890191612810826022830185610b62565b017f2220666f6e742d73697a653d2231342220666f6e742d66616d696c793d22417260228201527f69616c2220666f6e742d7765696768743d22363030223e53746167653a3c2f7460428201526127697f6578743e00000000000000000000000000000000000000000000000000000000998a60628401527f3c7465787420783d223131302220793d22333930222066696c6c3d2200000000606684015251809385840190610b62565b0192661e17ba32bc3a1f60c91b84527f3c7465787420783d223230302220793d22333930222066696c6c3d22000000006007850152805189820194612903826023830188610b62565b01927f2220666f6e742d73697a653d2231342220666f6e742d66616d696c793d22417260238501527f69616c2220666f6e742d7765696768743d22363030223e53686172653a3c2f74604385015260638401527f3c7465787420783d223235302220793d22333930222066696c6c3d2200000000606784015251809385840190610b62565b0190661e17ba32bc3a1f60c91b82527f3c7465787420783d2235302220793d22343230222066696c6c3d2200000000006007830152612a66815160208301936129d5826022830187610b62565b01917f2220666f6e742d73697a653d2231342220666f6e742d66616d696c793d22417260228401527f69616c2220666f6e742d7765696768743d22363030223e436f6e74726163743a6042840152661e17ba32bc3a1f60c91b60628401527f3c7465787420783d2235302220793d22343430222066696c6c3d22000000000060698401525180936084840190610b62565b017f2220666f6e742d73697a653d2231302220666f6e742d66616d696c793d226d6f6084820152683737b9b830b1b2911f60b91b60a48201526101005190612ab882518093602060ad85019101610b62565b01661e17ba32bc3a1f60c91b60ad820152612add82518093602060b485019101610b62565b017f3c7265637420783d223134302220793d22353235222077696474683d2231323060b48201527f22206865696768743d223335222072783d223138222066696c6c3d2275726c2860d48201527f237072696d6172794772616469656e742922206f7061636974793d22302e382260f48201527f2066696c7465723d2275726c2823676c61737329223e000000000000000000006101148201527f3c616e696d617465206174747269627574654e616d653d226f7061636974792261012a8201527f2076616c7565733d22302e383b313b302e3822206475723d223473222072657061014a8201527f656174436f756e743d22696e646566696e697465222f3e00000000000000000061016a8201527f3c2f726563743e000000000000000000000000000000000000000000000000006101818201527f3c7465787420783d223230302220793d223534382220746578742d616e63686f806101888301527f723d226d6964646c65222066696c6c3d22236666666666662220666f6e742d736101a88301527f697a653d2231342220666f6e742d66616d696c793d22417269616c2220666f6e6101c88301527f742d7765696768743d22626f6c64222066696c7465723d2275726c2823676c6f6101e88301527f7729223e4c697661723c2f746578743e000000000000000000000000000000006102088301526102188201527f723d226d6964646c65222066696c6c3d2275726c2823636972636c65476c6f776102388201527f292220666f6e742d73697a653d2231342220666f6e742d66616d696c793d22416102588201527f7269616c2220666f6e742d7765696768743d22626f6c6422206f7061636974796102788201527f3d22302e33223e4c697661723c2f746578743e000000000000000000000000006102988201527f3c2f7376673e00000000000000000000000000000000000000000000000000006102ab8201526101205180910390610291820190520161012051610977565b6101205190565b909d9b959697989a94939c9991929e612dd8826135b8565b91612de161356e565b602061014051015191602d8101811161302f57602d01612e00906135b8565b90612e096135ad565b916101405160200151936040519686889751908160208a019160200191612e2f92610b62565b870160208101681e3932b1ba103c1e9160b91b905281519182602983019160200191612e5a92610b62565b01926411103c9e9160d91b9384602982015281519182602e83019160200191612e8292610b62565b0190602e82017f222077696474683d22393022206865696768743d223230222072783d223130229052604e820166103334b6361e9160c91b905280516020820192816055820190612ed39186610b62565b0190605582017f222066696c6c2d6f7061636974793d22302e3122207374726f6b653d22000000905251918260728301612f0c92610b62565b01607281017f22207374726f6b652d77696474683d2231222f3e000000000000000000000000905260868101681e3a32bc3a103c1e9160b91b905281519182608f83019160200191612f5d92610b62565b0190608f82015281519182609483019160200191612f7a92610b62565b01609481017f2220746578742d616e63686f723d226d6964646c65222066696c6c3d2200000090528151918260b183019160200191612fb892610b62565b0160b181017f2220666f6e742d73697a653d22392220666f6e742d66616d696c793d22417269905260d181017f616c223e526576656e75653c2f746578743e000000000000000000000000000090520360c38101825260e30161301b9082610977565b9d9190989b929399979695949a9c38610c83565b634e487b7160e01b600052601160045260246000fd5b50610118811115610c7e565b9e8f9061305d826135b8565b9161306661356e565b91602061014051015160238301831161302f576132889361308b602360e595016135b8565b906130946135ad565b9160206101405101519360405198866130b78b985180926020808c019101610b62565b8701681e3932b1ba103c1e9160b91b60208201526130df825180936020602985019101610b62565b01926411103c9e9160d91b93846029820152613105825180936020602e85019101610b62565b01907f222077696474683d22373022206865696768743d223230222072783d22313022602e83015266103334b6361e9160c91b604e83015261318a81516020830193613155826055830187610b62565b01917f222066696c6c2d6f7061636974793d22302e3122207374726f6b653d2200000060558401525180936072840190610b62565b017f22207374726f6b652d77696474683d2231222f3e0000000000000000000000006072820152681e3a32bc3a103c1e9160b91b60868201526131d7825180936020608f85019101610b62565b0190608f8201526131f2825180936020609485019101610b62565b017f2220746578742d616e63686f723d226d6964646c65222066696c6c3d22000000609482015261322d82518093602060b185019101610b62565b017f2220666f6e742d73697a653d2231302220666f6e742d66616d696c793d22417260b18201527f69616c223e41697264726f70733c2f746578743e00000000000000000000000060d18201520360c5810184520182610977565b9e60508101811161302f57605001610c6e565b5061010e811115610c69565b919f50906132b3613508565b91602283015b6000190190600a906f181899199a1a9b1b9c1cb0b131b232b360811b8282061a83530490816132b95750506132ec61356e565b602061014051015191605a92613300613508565b93602285015b6000190190600a906f181899199a1a9b1b9c1cb0b131b232b360811b8282061a83530490816133065750506134ff9360e6936133406135ad565b9160206101405101519360405198866133638b985180926020808c019101610b62565b8701681e3932b1ba103c1e9160b91b602082015261338b825180936020602985019101610b62565b01926411103c9e9160d91b938460298201526133b1825180936020602e85019101610b62565b01907f222077696474683d22383022206865696768743d223230222072783d22313022602e83015266103334b6361e9160c91b604e83015261340181516020830193613155826055830187610b62565b017f22207374726f6b652d77696474683d2231222f3e0000000000000000000000006072820152681e3a32bc3a103c1e9160b91b608682015261344e825180936020608f85019101610b62565b0190608f820152613469825180936020609485019101610b62565b017f2220746578742d616e63686f723d226d6964646c65222066696c6c3d2200000060948201526134a482518093602060b185019101610b62565b017f2220666f6e742d73697a653d2231302220666f6e742d66616d696c793d22417260b18201527f69616c223e4469766964656e64733c2f746578743e000000000000000000000060d18201520360c6810184520182610977565b9d608c38610c58565b604051906135158261095b565b6002825260203681840137565b6040519061352f8261095b565b6003825260203681840137565b9061354682610999565b6135536040519182610977565b8281528092613564601f1991610999565b0190602036910137565b6101d6613579613522565b90602382015b6000190190600a906f181899199a1a9b1b9c1cb0b131b232b360811b8282061a835304908161357f57505090565b6101e4613579613522565b806000917a184f03e93ff9f4daa797ed6e38ed64bf6a1f010000000000000000808210156136ed575b506d04ee2d6d415b85acef8100000000808310156136de575b50662386f26fc10000808310156136cf575b506305f5e100808310156136c0575b50612710808310156136b1575b5060648210156136a1575b600a80921015613697575b60019081602161364f82870161353c565b95860101905b613661575b5050505090565b600019019083906f181899199a1a9b1b9c1cb0b131b232b360811b8282061a83530491821561369257919082613655565b61365a565b916001019161363e565b9190606460029104910191613633565b60049193920491019138613628565b6008919392049101913861361b565b6010919392049101913861360c565b602091939204910191386135fa565b6040935081049150386135e1565b60408101805151909190156137d55750516137d2607d60405180937f3c696d61676520783d223137302220793d22313730222077696474683d22363060208301527f22206865696768743d2236302220687265663d220000000000000000000000006040830152613776815180926020605486019101610b62565b81017f2220636c69702d706174683d22636972636c652833307078206174203330707860548201527f203330707829222f3e0000000000000000000000000000000000000000000000607482015203605d810184520182610977565b90565b6020915001516137d2605860405180937f3c636972636c652063783d22323030222063793d223230302220723d22313522602083015266103334b6361e9160c91b604083015261382f815180926020604786019101610b62565b81017f22206f7061636974793d22302e33222f3e0000000000000000000000000000006047820152036038810184520182610977565b908151811015613876570160200190565b634e487b7160e01b600052603260045260246000fd5b604051906bffffffffffffffffffffffff199060601b166020820152601481526138b58161095b565b604051906138c28261095b565b601082526f181899199a1a9b1b9c1cb0b131b232b360811b602083015280519060019180831b60029180820483149015171561302f5781019384821161302f5761392461390e86610999565b9561391c6040519788610977565b808752610999565b6020860190601f190136823785511561387657603090538451841015613876578392607860218701536000935b61395e575b505050505090565b8051841015613a18577fff00000000000000000000000000000000000000000000000000000000000000806139a06139968785613865565b5160fc1c85613865565b51169085871b9186830486148715171561302f578286019081871161302f576139cd9060001a918a613865565b536139e8600f6139dd8886613865565b5160f81c1685613865565b5116600391820180921161302f57613a049060001a9188613865565b53600019841461302f578480940193613951565b613956565b60018114613c0d5760028114613bd35760038114613b995760048114613b5f5760058114613b255760068114613aeb5760078114613ab157613a5e906135b8565b6137d2602660405180937f526f756e642000000000000000000000000000000000000000000000000000006020830152613aa18151809260208686019101610b62565b8101036006810184520182610977565b50604051613abe8161095b565b600881527f5365726965732043000000000000000000000000000000000000000000000000602082015290565b50604051613af88161095b565b600881527f5365726965732042000000000000000000000000000000000000000000000000602082015290565b50604051613b328161095b565b600881527f5365726965732041000000000000000000000000000000000000000000000000602082015290565b50604051613b6c8161095b565b600481527f5365656400000000000000000000000000000000000000000000000000000000602082015290565b50604051613ba68161095b565b600881527f5072652d53656564000000000000000000000000000000000000000000000000602082015290565b50604051613be08161095b565b600381527f4d56500000000000000000000000000000000000000000000000000000000000602082015290565b50604051613c1a8161095b565b600581527f416e67656c000000000000000000000000000000000000000000000000000000602082015290565b60405190613c548261095b565b600582527f66616c73650000000000000000000000000000000000000000000000000000006020830152565b60405190613c8d8261095b565b600482527f74727565000000000000000000000000000000000000000000000000000000006020830152565b805115613e2257604051906060820182811067ffffffffffffffff82111761094557604052604082527f4142434445464748494a4b4c4d4e4f505152535455565758595a61626364656660208301527f6768696a6b6c6d6e6f707172737475767778797a303132333435363738392b2f6040830152805160029182820180921161302f5760038092047f3fffffffffffffffffffffffffffffffffffffffffffffffffffffffffffffff8116810361302f57613d78908495941b61353c565b936020850193829183518401906020820192835194600085525b838110613dd1575050505052510680600114613dbe57600214613db3575090565b603d90600019015390565b50603d9081600019820153600119015390565b87600491999293949901918251600190603f9082828260121c16880101518453828282600c1c16880101518385015382828260061c1688010151888501531685010151898201530197929190613d92565b50604051613e2f81610929565b600081529056fea26469706673582212203602e60bcaada0d98cbca0177f4ac5df50794163b265dcec52e0a7901583b67c64736f6c63430008140033",
  "linkReferences": {},
  "deployedLinkReferences": {}
}