{
  "_format": "hh-sol-artifact-1",
  "contractName": "RecPromotionManager",
  "sourceName": "contracts/RecPromotionManager.sol",
  "abi": [
    {
      "inputs": [
        {
          "internalType": "address",
          "name": "_recProxy",
          "type": "address"
        },
        {
          "internalType": "address",
          "name": "_priceConsumer",
          "type": "address"
        },
        {
          "internalType": "address",
          "name": "_treasury",
          "type": "address"
        }
      ],
      "stateMutability": "nonpayable",
      "type": "constructor"
    },
    {
      "anonymous": false,
      "inputs": [
        {
          "indexed": true,
          "internalType": "address",
          "name": "campaignAddress",
          "type": "address"
        },
        {
          "indexed": true,
          "internalType": "address",
          "name": "creator",
          "type": "address"
        },
        {
          "indexed": false,
          "internalType": "enum RecPromotionManager.BoostType",
          "name": "boostType",
          "type": "uint8"
        },
        {
          "indexed": false,
          "internalType": "uint256",
          "name": "roundNumber",
          "type": "uint256"
        },
        {
          "indexed": false,
          "internalType": "uint256",
          "name": "ethAmount",
          "type": "uint256"
        },
        {
          "indexed": false,
          "internalType": "uint256",
          "name": "startTime",
          "type": "uint256"
        },
        {
          "indexed": false,
          "internalType": "uint256",
          "name": "endTime",
          "type": "uint256"
        },
        {
          "indexed": false,
          "internalType": "uint256",
          "name": "timestamp",
          "type": "uint256"
        }
      ],
      "name": "CampaignPromoted",
      "type": "event"
    },
    {
      "anonymous": false,
      "inputs": [
        {
          "indexed": true,
          "internalType": "address",
          "name": "previousOwner",
          "type": "address"
        },
        {
          "indexed": true,
          "internalType": "address",
          "name": "newOwner",
          "type": "address"
        }
      ],
      "name": "OwnershipTransferred",
      "type": "event"
    },
    {
      "anonymous": false,
      "inputs": [
        {
          "indexed": false,
          "internalType": "address",
          "name": "oldPriceConsumer",
          "type": "address"
        },
        {
          "indexed": false,
          "internalType": "address",
          "name": "newPriceConsumer",
          "type": "address"
        }
      ],
      "name": "PriceConsumerUpdated",
      "type": "event"
    },
    {
      "anonymous": false,
      "inputs": [
        {
          "indexed": true,
          "internalType": "address",
          "name": "campaignAddress",
          "type": "address"
        },
        {
          "indexed": false,
          "internalType": "uint256",
          "name": "roundNumber",
          "type": "uint256"
        },
        {
          "indexed": false,
          "internalType": "enum RecPromotionManager.BoostType",
          "name": "boostType",
          "type": "uint8"
        },
        {
          "indexed": false,
          "internalType": "uint256",
          "name": "timestamp",
          "type": "uint256"
        }
      ],
      "name": "PromotionExpired",
      "type": "event"
    },
    {
      "anonymous": false,
      "inputs": [
        {
          "indexed": false,
          "internalType": "address",
          "name": "oldRecProxy",
          "type": "address"
        },
        {
          "indexed": false,
          "internalType": "address",
          "name": "newRecProxy",
          "type": "address"
        }
      ],
      "name": "RecProxyUpdated",
      "type": "event"
    },
    {
      "anonymous": false,
      "inputs": [
        {
          "indexed": false,
          "internalType": "address",
          "name": "oldTreasury",
          "type": "address"
        },
        {
          "indexed": false,
          "internalType": "address",
          "name": "newTreasury",
          "type": "address"
        }
      ],
      "name": "TreasuryUpdated",
      "type": "event"
    },
    {
      "stateMutability": "payable",
      "type": "fallback"
    },
    {
      "inputs": [],
      "name": "FEATURED_DURATION",
      "outputs": [
        {
          "internalType": "uint256",
          "name": "",
          "type": "uint256"
        }
      ],
      "stateMutability": "view",
      "type": "function"
    },
    {
      "inputs": [],
      "name": "FEATURED_PRICE_USD_CENTS",
      "outputs": [
        {
          "internalType": "uint256",
          "name": "",
          "type": "uint256"
        }
      ],
      "stateMutability": "view",
      "type": "function"
    },
    {
      "inputs": [],
      "name": "SPOTLIGHT_DURATION",
      "outputs": [
        {
          "internalType": "uint256",
          "name": "",
          "type": "uint256"
        }
      ],
      "stateMutability": "view",
      "type": "function"
    },
    {
      "inputs": [],
      "name": "SPOTLIGHT_PRICE_USD_CENTS",
      "outputs": [
        {
          "internalType": "uint256",
          "name": "",
          "type": "uint256"
        }
      ],
      "stateMutability": "view",
      "type": "function"
    },
    {
      "inputs": [],
      "name": "TRENDING_DURATION",
      "outputs": [
        {
          "internalType": "uint256",
          "name": "",
          "type": "uint256"
        }
      ],
      "stateMutability": "view",
      "type": "function"
    },
    {
      "inputs": [],
      "name": "TRENDING_PRICE_USD_CENTS",
      "outputs": [
        {
          "internalType": "uint256",
          "name": "",
          "type": "uint256"
        }
      ],
      "stateMutability": "view",
      "type": "function"
    },
    {
      "inputs": [
        {
          "internalType": "uint256",
          "name": "",
          "type": "uint256"
        }
      ],
      "name": "activePromotions",
      "outputs": [
        {
          "internalType": "address",
          "name": "campaignAddress",
          "type": "address"
        },
        {
          "internalType": "address",
          "name": "creator",
          "type": "address"
        },
        {
          "internalType": "enum RecPromotionManager.BoostType",
          "name": "boostType",
          "type": "uint8"
        },
        {
          "internalType": "uint256",
          "name": "roundNumber",
          "type": "uint256"
        },
        {
          "internalType": "uint256",
          "name": "ethAmount",
          "type": "uint256"
        },
        {
          "internalType": "uint256",
          "name": "startTime",
          "type": "uint256"
        },
        {
          "internalType": "uint256",
          "name": "endTime",
          "type": "uint256"
        },
        {
          "internalType": "bool",
          "name": "isActive",
          "type": "bool"
        },
        {
          "internalType": "string",
          "name": "txHash",
          "type": "string"
        }
      ],
      "stateMutability": "view",
      "type": "function"
    },
    {
      "inputs": [
        {
          "internalType": "address",
          "name": "",
          "type": "address"
        },
        {
          "internalType": "uint256",
          "name": "",
          "type": "uint256"
        }
      ],
      "name": "campaignPromotionHistory",
      "outputs": [
        {
          "internalType": "address",
          "name": "campaignAddress",
          "type": "address"
        },
        {
          "internalType": "address",
          "name": "creator",
          "type": "address"
        },
        {
          "internalType": "enum RecPromotionManager.BoostType",
          "name": "boostType",
          "type": "uint8"
        },
        {
          "internalType": "uint256",
          "name": "roundNumber",
          "type": "uint256"
        },
        {
          "internalType": "uint256",
          "name": "ethAmount",
          "type": "uint256"
        },
        {
          "internalType": "uint256",
          "name": "startTime",
          "type": "uint256"
        },
        {
          "internalType": "uint256",
          "name": "endTime",
          "type": "uint256"
        },
        {
          "internalType": "bool",
          "name": "isActive",
          "type": "bool"
        },
        {
          "internalType": "string",
          "name": "txHash",
          "type": "string"
        }
      ],
      "stateMutability": "view",
      "type": "function"
    },
    {
      "inputs": [
        {
          "internalType": "address",
          "name": "",
          "type": "address"
        },
        {
          "internalType": "uint256",
          "name": "",
          "type": "uint256"
        }
      ],
      "name": "campaignPromotions",
      "outputs": [
        {
          "internalType": "address",
          "name": "campaignAddress",
          "type": "address"
        },
        {
          "internalType": "address",
          "name": "creator",
          "type": "address"
        },
        {
          "internalType": "enum RecPromotionManager.BoostType",
          "name": "boostType",
          "type": "uint8"
        },
        {
          "internalType": "uint256",
          "name": "roundNumber",
          "type": "uint256"
        },
        {
          "internalType": "uint256",
          "name": "ethAmount",
          "type": "uint256"
        },
        {
          "internalType": "uint256",
          "name": "startTime",
          "type": "uint256"
        },
        {
          "internalType": "uint256",
          "name": "endTime",
          "type": "uint256"
        },
        {
          "internalType": "bool",
          "name": "isActive",
          "type": "bool"
        },
        {
          "internalType": "string",
          "name": "txHash",
          "type": "string"
        }
      ],
      "stateMutability": "view",
      "type": "function"
    },
    {
      "inputs": [],
      "name": "cleanupExpiredPromotions",
      "outputs": [],
      "stateMutability": "nonpayable",
      "type": "function"
    },
    {
      "inputs": [
        {
          "internalType": "address",
          "name": "campaignAddress",
          "type": "address"
        },
        {
          "internalType": "uint256",
          "name": "roundNumber",
          "type": "uint256"
        }
      ],
      "name": "getActivePromotion",
      "outputs": [
        {
          "components": [
            {
              "internalType": "address",
              "name": "campaignAddress",
              "type": "address"
            },
            {
              "internalType": "address",
              "name": "creator",
              "type": "address"
            },
            {
              "internalType": "enum RecPromotionManager.BoostType",
              "name": "boostType",
              "type": "uint8"
            },
            {
              "internalType": "uint256",
              "name": "roundNumber",
              "type": "uint256"
            },
            {
              "internalType": "uint256",
              "name": "ethAmount",
              "type": "uint256"
            },
            {
              "internalType": "uint256",
              "name": "startTime",
              "type": "uint256"
            },
            {
              "internalType": "uint256",
              "name": "endTime",
              "type": "uint256"
            },
            {
              "internalType": "bool",
              "name": "isActive",
              "type": "bool"
            },
            {
              "internalType": "string",
              "name": "txHash",
              "type": "string"
            }
          ],
          "internalType": "struct RecPromotionManager.CampaignPromotion",
          "name": "",
          "type": "tuple"
        }
      ],
      "stateMutability": "view",
      "type": "function"
    },
    {
      "inputs": [],
      "name": "getActivePromotions",
      "outputs": [
        {
          "components": [
            {
              "internalType": "address",
              "name": "campaignAddress",
              "type": "address"
            },
            {
              "internalType": "address",
              "name": "creator",
              "type": "address"
            },
            {
              "internalType": "enum RecPromotionManager.BoostType",
              "name": "boostType",
              "type": "uint8"
            },
            {
              "internalType": "uint256",
              "name": "roundNumber",
              "type": "uint256"
            },
            {
              "internalType": "uint256",
              "name": "ethAmount",
              "type": "uint256"
            },
            {
              "internalType": "uint256",
              "name": "startTime",
              "type": "uint256"
            },
            {
              "internalType": "uint256",
              "name": "endTime",
              "type": "uint256"
            },
            {
              "internalType": "bool",
              "name": "isActive",
              "type": "bool"
            },
            {
              "internalType": "string",
              "name": "txHash",
              "type": "string"
            }
          ],
          "internalType": "struct RecPromotionManager.CampaignPromotion[]",
          "name": "",
          "type": "tuple[]"
        }
      ],
      "stateMutability": "view",
      "type": "function"
    },
    {
      "inputs": [],
      "name": "getAllBoostPrices",
      "outputs": [
        {
          "internalType": "uint256",
          "name": "featuredETH",
          "type": "uint256"
        },
        {
          "internalType": "uint256",
          "name": "trendingETH",
          "type": "uint256"
        },
        {
          "internalType": "uint256",
          "name": "spotlightETH",
          "type": "uint256"
        }
      ],
      "stateMutability": "view",
      "type": "function"
    },
    {
      "inputs": [
        {
          "internalType": "enum RecPromotionManager.BoostType",
          "name": "boostType",
          "type": "uint8"
        }
      ],
      "name": "getBoostPriceInETH",
      "outputs": [
        {
          "internalType": "uint256",
          "name": "",
          "type": "uint256"
        }
      ],
      "stateMutability": "view",
      "type": "function"
    },
    {
      "inputs": [
        {
          "internalType": "address",
          "name": "campaignAddress",
          "type": "address"
        }
      ],
      "name": "getCampaignPromotionHistory",
      "outputs": [
        {
          "components": [
            {
              "internalType": "address",
              "name": "campaignAddress",
              "type": "address"
            },
            {
              "internalType": "address",
              "name": "creator",
              "type": "address"
            },
            {
              "internalType": "enum RecPromotionManager.BoostType",
              "name": "boostType",
              "type": "uint8"
            },
            {
              "internalType": "uint256",
              "name": "roundNumber",
              "type": "uint256"
            },
            {
              "internalType": "uint256",
              "name": "ethAmount",
              "type": "uint256"
            },
            {
              "internalType": "uint256",
              "name": "startTime",
              "type": "uint256"
            },
            {
              "internalType": "uint256",
              "name": "endTime",
              "type": "uint256"
            },
            {
              "internalType": "bool",
              "name": "isActive",
              "type": "bool"
            },
            {
              "internalType": "string",
              "name": "txHash",
              "type": "string"
            }
          ],
          "internalType": "struct RecPromotionManager.CampaignPromotion[]",
          "name": "",
          "type": "tuple[]"
        }
      ],
      "stateMutability": "view",
      "type": "function"
    },
    {
      "inputs": [
        {
          "internalType": "address",
          "name": "",
          "type": "address"
        },
        {
          "internalType": "uint256",
          "name": "",
          "type": "uint256"
        }
      ],
      "name": "hasActivePromotion",
      "outputs": [
        {
          "internalType": "bool",
          "name": "",
          "type": "bool"
        }
      ],
      "stateMutability": "view",
      "type": "function"
    },
    {
      "inputs": [
        {
          "internalType": "address",
          "name": "campaignAddress",
          "type": "address"
        },
        {
          "internalType": "uint256",
          "name": "roundNumber",
          "type": "uint256"
        }
      ],
      "name": "isPromotionActive",
      "outputs": [
        {
          "internalType": "bool",
          "name": "",
          "type": "bool"
        }
      ],
      "stateMutability": "view",
      "type": "function"
    },
    {
      "inputs": [],
      "name": "owner",
      "outputs": [
        {
          "internalType": "address",
          "name": "",
          "type": "address"
        }
      ],
      "stateMutability": "view",
      "type": "function"
    },
    {
      "inputs": [],
      "name": "priceConsumer",
      "outputs": [
        {
          "internalType": "address",
          "name": "",
          "type": "address"
        }
      ],
      "stateMutability": "view",
      "type": "function"
    },
    {
      "inputs": [
        {
          "internalType": "address",
          "name": "campaignAddress",
          "type": "address"
        },
        {
          "internalType": "enum RecPromotionManager.BoostType",
          "name": "boostType",
          "type": "uint8"
        }
      ],
      "name": "promoteCampaign",
      "outputs": [],
      "stateMutability": "payable",
      "type": "function"
    },
    {
      "inputs": [],
      "name": "recProxy",
      "outputs": [
        {
          "internalType": "address",
          "name": "",
          "type": "address"
        }
      ],
      "stateMutability": "view",
      "type": "function"
    },
    {
      "inputs": [],
      "name": "renounceOwnership",
      "outputs": [],
      "stateMutability": "nonpayable",
      "type": "function"
    },
    {
      "inputs": [
        {
          "internalType": "address",
          "name": "newOwner",
          "type": "address"
        }
      ],
      "name": "transferOwnership",
      "outputs": [],
      "stateMutability": "nonpayable",
      "type": "function"
    },
    {
      "inputs": [],
      "name": "treasury",
      "outputs": [
        {
          "internalType": "address",
          "name": "",
          "type": "address"
        }
      ],
      "stateMutability": "view",
      "type": "function"
    },
    {
      "inputs": [
        {
          "internalType": "address",
          "name": "_newPriceConsumer",
          "type": "address"
        }
      ],
      "name": "updatePriceConsumer",
      "outputs": [],
      "stateMutability": "nonpayable",
      "type": "function"
    },
    {
      "inputs": [
        {
          "internalType": "address",
          "name": "_newRecProxy",
          "type": "address"
        }
      ],
      "name": "updateRecProxy",
      "outputs": [],
      "stateMutability": "nonpayable",
      "type": "function"
    },
    {
      "inputs": [
        {
          "internalType": "address",
          "name": "_newTreasury",
          "type": "address"
        }
      ],
      "name": "updateTreasury",
      "outputs": [],
      "stateMutability": "nonpayable",
      "type": "function"
    },
    {
      "stateMutability": "payable",
      "type": "receive"
    }
  ],
  "bytecode": "0x6080346200011057601f62001f6d38819003918201601f19168301916001600160401b03831184841017620001155780849260609460405283398101031262000110576200004d816200012b565b62000069604062000061602085016200012b565b93016200012b565b60008054336001600160a01b031980831682178455946001600160a01b03938493849391908416907f8be0079c531659141344cd1fd0a4f28419497f9722a3daafe3b4186f6b6457e09080a3600180551694620000c886151562000140565b1691620000d783151562000140565b1692620000e684151562000140565b8260025416176002558160035416176003556004541617600455604051611ded9081620001808239f35b600080fd5b634e487b7160e01b600052604160045260246000fd5b51906001600160a01b03821682036200011057565b156200014857565b60405162461bcd60e51b815260206004820152600f60248201526e496e76616c6964206164647265737360881b6044820152606490fdfe60406080815260049081361015610097575b906020606492361561005a575162461bcd60e51b815291820152601760248201527f46756e6374696f6e20646f6573206e6f742065786973740000000000000000006044820152fd5b5162461bcd60e51b815291820152601d60248201527f446972656374207472616e7366657273206e6f742061636365707465640000006044820152fd5b6000803560e01c80630849332c146113ec57806320003698146113cf57806324fcde761461135b5780632de1ec4d146112d857806331cc74d1146112af57806339c4d11414611291578063404ed4d814611274578063461a758c1461124b5780635fd2d522146110f757806361d027b3146110cf578063665d83fd1461109e57806366b2cb5d146110805780636a2f2951146109755780636d5d12c5146108da578063715018a6146108805780637f51bb1f146107e9578063817f5b01146107cb5780638da5cb5b146107a35780638e56e7461461075c5780639082a43f146106d85780639749d46e146105a05780639a6a31f61461056e578063b1f95fb014610550578063bfd1b1c5146103be578063c6f3b3bf14610337578063d2ee13ea146102925763f2fde38b146101cc5750610011565b913461028e57602036600319011261028e576101e661144c565b906101ef6117aa565b6001600160a01b0391821692831561023c57505082546001600160a01b0319811683178455167f8be0079c531659141344cd1fd0a4f28419497f9722a3daafe3b4186f6b6457e08380a380f35b906020608492519162461bcd60e51b8352820152602660248201527f4f776e61626c653a206e6577206f776e657220697320746865207a65726f206160448201526564647265737360d01b6064820152fd5b8280fd5b509034610333576020366003190112610333577fccd3bb976410aeec3f803d9bb5a11c34f268b5a2356e51e6c69e9800e3cb7a8e906102cf61144c565b906102d86117aa565b6001600160a01b03918083169161032d91906102f5841515611802565b600280546001600160a01b031981169095179055516001600160a01b0394909316841683529290921660208201529081906040820190565b0390a180f35b5080fd5b50346103bb5760203660031901126103bb578235906007548210156103bb57506103636103b7916116dc565b509160018060a01b03928381541694600182015490600283015490600384015490840154916005850154936103a2600760ff60068901541697016115de565b9651998a9960ff8360a01c169216908a611684565b0390f35b80fd5b50913461028e578260031936011261028e576003548251630462fa6d60e31b808252613a9884830152662386f26fc1000060248301529093916001600160a01b0316906020908186604481865afa958615610546578796610513575b5083519281845261afc886850152666a94d74f43000060248501528284604481845afa9384156105095788946104d3575b5094604483926201d4c09787519889948593845283015267011c37937e08000060248301525afa9384156104c9578694610492575b50606095508251948552840152820152f35b9080945081813d83116104c2575b6104aa81836115bc565b810103126104be5760609550519238610480565b8580fd5b503d6104a0565b83513d88823e3d90fd5b959093508286813d8311610502575b6104ec81836115bc565b810103126104fe57945192604461044b565b8780fd5b503d6104e2565b85513d8a823e3d90fd5b9095508181813d831161053f575b61052b81836115bc565b8101031261053b5751943861041a565b8680fd5b503d610521565b84513d89823e3d90fd5b5090346103335781600319360112610333576020905162093a808152f35b50903461033357806003193601126103335760209061059761058e61144c565b60243590611b9c565b90519015158152f35b5090346103335781600319360112610333576105ba6117aa565b815b6007548110156106d457806105d36105f1926116dc565b5060ff908160068092015416806106be575b6105f6575b5050611b63565b6105bc565b60607f51cd84f16965d83a40f635745ac5f4662eaf08d3906b427619aaf56c0172099991610623856116dc565b50019260ff19938481541690556106b161063c866116dc565b50546001600160a01b039081168a5260086020908152898b2096909190610662896116dc565b50976002809901548d5283528a8c20908154169055610680886116dc565b5054169561068d886116dc565b50015492600161069c896116dc565b50015460a01c16908951938452830190611467565b4287820152a284806105ea565b5060056106ca846116dc565b50015442116105e5565b8280f35b50346103bb57602080600319360112610333576001600160a01b036106fb61144c565b1682526006815282822080549161071183611b4b565b9361071e865195866115bc565b8385529182528082208185015b84841061073f578651806103b78882611748565b60088360019261074e85611ac6565b81520192019301929061072b565b50903461033357806003193601126103335760209160ff9082906001600160a01b0361078661144c565b168152600885528181206024358252855220541690519015158152f35b509034610333578160031936011261033357905490516001600160a01b039091168152602090f35b5090346103335781600319360112610333576020905162278d008152f35b5091903461028e57602036600319011261028e577f4ab5be82436d353e61ca18726e984e561f5c1cc7c6d38b29d2553c790434705a9161032d61082a61144c565b6108326117aa565b6001600160a01b03938185169361084a851515611802565b80546001600160a01b031981169095179055516001600160a01b0394909316841683529290921660208201529081906040820190565b50346103bb57806003193601126103bb576108996117aa565b80546001600160a01b03198116825581906001600160a01b03167f8be0079c531659141344cd1fd0a4f28419497f9722a3daafe3b4186f6b6457e08280a380f35b509034610333576020366003190112610333577f0a46aaee625137944c0ec0002099cb4579cc02a2a9fb5b64d7b6dc4e46e5bc2c9061091761144c565b906109206117aa565b6001600160a01b03918083169161032d919061093d841515611802565b600380546001600160a01b031981169095179055516001600160a01b0394909316841683529290921660208201529081906040820190565b5091908060031936011261028e5761098b61144c565b9160249283359260038410156104be57600194600286541461103e57600286556001600160a01b039283169381906109c4861515611802565b8885600254168551938480926321566d1360e11b82528a868301525afa918215611034578992610eff575b508482511615610ebd5784602080930151163303610e73578351632286722f60e21b815292828483818a5afa938415610e69578a94610e36575b508315610dfd57868a5260088352848a20848b52835260ff858b205416610dad57845163a32bf59760e01b81526101009690878185818c5afa908115610da3578c91610d5a575b5015610d1957610a7f89611d83565b420196874211610d0757865190610a9582611589565b8982523386830152610aa98b8984016118bf565b8660608301523460808301524260a08301528860c08301528b60e083015287519086820182811067ffffffffffffffff821117610cf55789528d8252820152888c5260058552868c20868d528552868c20610b059082906118cb565b888c5260068552868c208054680100000000000000009182821015610cf55790610b33918e8201815561172c565b610ce45782610b41916118cb565b60075490811015610cd257808c610b5b92016007556116dc565b610cc15790610b69916118cb565b878b5260088452858b20858c528452858b20805460ff19168b179055825416344710610c80578a8080809334905af13d15610c7b573d610ba881611854565b90610bb5885192836115bc565b81528b853d92013e5b15610c15575050610bd183518097611467565b850152349084015242606084015260808301524260a08301527f7fcad4422336e394d463d84a40b48dbd6ba34fa99a4f770c3a69ffa58c8fd0f660c03393a3805580f35b603a9060849386519362461bcd60e51b85528401528201527f416464726573733a20756e61626c6520746f2073656e642076616c75652c207260448201527f6563697069656e74206d617920686176652072657665727465640000000000006064820152fd5b610bbe565b50601d9060649386519362461bcd60e51b85528401528201527f416464726573733a20696e73756666696369656e742062616c616e63650000006044820152fd5b634e487b7160e01b8d528c8552838dfd5b634e487b7160e01b8d5260418552838dfd5b634e487b7160e01b8e528d8652848efd5b634e487b7160e01b8f5260418752858ffd5b634e487b7160e01b8c5260118452828cfd5b50601c9060649386519362461bcd60e51b85528401528201527f43616d706169676e20726f756e64206973206e6f7420616374697665000000006044820152fd5b90508781813d8311610d9c575b610d7181836115bc565b81010312610d9857610d9160e0610d8a60c084016118b2565b92016118b2565b5038610a70565b8b80fd5b503d610d67565b87513d8e823e3d90fd5b60279060849386519362461bcd60e51b85528401528201527f50726f6d6f74696f6e20616c72656164792061637469766520666f72207468696044820152661cc81c9bdd5b9960ca1b6064820152fd5b60169060649386519362461bcd60e51b855284015282015275125b9d985b1a590818d85b5c185a59db881c9bdd5b9960521b6044820152fd5b9093508281813d8311610e62575b610e4e81836115bc565b81010312610e5e57519238610a29565b8980fd5b503d610e44565b85513d8c823e3d90fd5b925162461bcd60e51b8152928301526021908201527f4f6e6c792063616d706169676e2063726561746f722063616e2070726f6d6f746044820152606560f81b6064820152608490fd5b606490601784602087519362461bcd60e51b85528401528201527f43616d706169676e206e6f7420726567697374657265640000000000000000006044820152fd5b9091503d808a833e610f1181836115bc565b8101602082820312610e5e57815167ffffffffffffffff92838211610d98570190610140928383830312610d9857865193840184811082821117611022578752610f5a83611840565b8452610f6860208401611840565b6020850152868301518785015260608301516060850152608083015181811161101e5782610f97918501611870565b6080850152610fa860a084016118b2565b60a085015260c083015181811161101e5782610fc5918501611870565b60c085015260e083015181811161101e5782610fe2918501611870565b60e0850152610100918284015191821161101e57611001918401611870565b90830152611013610120809201611840565b9082015290386109ef565b8c80fd5b634e487b7160e01b8d5260418652868dfd5b84513d8b823e3d90fd5b601f84916020606494519362461bcd60e51b85528401528201527f5265656e7472616e637947756172643a207265656e7472616e742063616c6c006044820152fd5b509034610333578160031936011261033357602090516201d4c08152f35b50913461028e57602036600319011261028e57359160038310156103bb57506110c8602092611c07565b9051908152f35b50913461028e578260031936011261028e575490516001600160a01b03909116815260209150f35b509034610333578160031936011261033357819082600754935b8481106111f5575061112283611b4b565b9261112f835194856115bc565b80845261113e601f1991611b4b565b01815b8181106111de575050805b848110611160578251806103b78682611748565b60ff600661116d836116dc565b50015416806111c7575b61118a575b61118590611b63565b61114c565b906111bf611185916111a461119e856116dc565b50611ac6565b6111ae8288611b88565b526111b98187611b88565b50611b63565b91905061117c565b5060056111d3826116dc565b500154421115611177565b6020906111e9611a82565b82828801015201611141565b60ff6006611202836116dc565b5001541680611234575b61121f575b61121a90611b63565b611111565b9261122c61121a91611b63565b939050611211565b506005611240826116dc565b50015442111561120c565b50903461033357816003193601126103335760035490516001600160a01b039091168152602090f35b50903461033357816003193601126103335760209051613a988152f35b50903461033357816003193601126103335760209051620151808152f35b50903461033357816003193601126103335760025490516001600160a01b039091168152602090f35b5090346103335780600319360112610333576112f261144c565b6001600160a01b039081168352600660205281832080549193602435928310156103bb57506103b792916113259161172c565b508381541694600182015490600283015490600384015490840154916005850154936103a2600760ff60068901541697016115de565b5090346103335780600319360112610333576001600160a01b03916103b7919081908461138661144c565b16815260056020528181206024358252602052208381541694600182015490600283015490600384015490840154916005850154936103a2600760ff60068901541697016115de565b5090346103335781600319360112610333576020905161afc88152f35b509034610333578060031936011261033357611439816103b79361140e61144c565b611416611a82565b506001600160a01b03168152600560209081528282206024358352905220611ac6565b90519182916020835260208301906114d2565b600435906001600160a01b038216820361146257565b600080fd5b9060038210156114745752565b634e487b7160e01b600052602160045260246000fd5b60005b83811061149d5750506000910152565b818101518382015260200161148d565b906020916114c68151809281855285808601910161148a565b601f01601f1916010190565b9061154c9160018060a01b03808251168352602082015116602083015261150160408201516040840190611467565b606081015160608301526080810151608083015260a081015160a083015260c081015160c083015260e0810151151560e08301526101008091015191610120809282015201906114ad565b90565b90600182811c9216801561157f575b602083101461156957565b634e487b7160e01b600052602260045260246000fd5b91607f169161155e565b610120810190811067ffffffffffffffff8211176115a657604052565b634e487b7160e01b600052604160045260246000fd5b90601f8019910116810190811067ffffffffffffffff8211176115a657604052565b90604051918260008254926115f28461154f565b908184526001948581169081600014611661575060011461161e575b505061161c925003836115bc565b565b9093915060005260209081600020936000915b81831061164957505061161c9350820101388061160e565b85548884018501529485019487945091830191611631565b91505061161c94506020925060ff191682840152151560051b820101388061160e565b9694926116af9161154c9a9997959360018060a01b038092168a521660208901526040880190611467565b6060860152608085015260a084015260c0830152151560e0820152610120908161010082015201906114ad565b60075481101561171657600760005260031b7fa66cc928b5edb82af9bd49922954155ab7b0942694bea4ce44661d9a8736c6880190600090565b634e487b7160e01b600052603260045260246000fd5b80548210156117165760005260206000209060031b0190600090565b602080820190808352835180925260408301928160408460051b8301019501936000915b84831061177c5750505050505090565b909192939495848061179a600193603f198682030187528a516114d2565b980193019301919493929061176c565b6000546001600160a01b031633036117be57565b606460405162461bcd60e51b815260206004820152602060248201527f4f776e61626c653a2063616c6c6572206973206e6f7420746865206f776e65726044820152fd5b1561180957565b60405162461bcd60e51b815260206004820152600f60248201526e496e76616c6964206164647265737360881b6044820152606490fd5b51906001600160a01b038216820361146257565b67ffffffffffffffff81116115a657601f01601f191660200190565b81601f8201121561146257805161188681611854565b9261189460405194856115bc565b818452602082840101116114625761154c916020808501910161148a565b5190811515820361146257565b60038210156114745752565b60018060a01b03808351166bffffffffffffffffffffffff60a01b8354161782556001918281016020928386015116918154916040870151926003841015611474576101009460079460ff60a01b9060a01b16916affffffffffffffffffffff60a81b1617179055606086015160028201556080860151600382015560a0860151600482015560c086015160058201556006810160e0870151151560ff80198354169116179055019301519081519167ffffffffffffffff83116115a657611993855461154f565b601f8111611a39575b5081601f84116001146119d657509282939183926000946119cb575b50501b916000199060031b1c1916179055565b0151925038806119b8565b919083601f1981168760005284600020946000905b88838310611a1f5750505010611a06575b505050811b019055565b015160001960f88460031b161c191690553880806119fc565b8587015188559096019594850194879350908101906119eb565b6000868152838120601f860160051c810192858710611a78575b601f0160051c019186905b838110611a6d5750505061199c565b828155018690611a5e565b9092508290611a53565b60405190611a8f82611589565b606061010083600080825280602083015280604083015280848301528060808301528060a08301528060c083015260e08201520152565b90604051611ad381611589565b610100611b4660078395611b0960ff60018060a01b038084541688526001840154908116602089015260a01c16604087016118bf565b6002810154606086015260038101546080860152600481015460a0860152600581015460c086015260ff600682015416151560e0860152016115de565b910152565b67ffffffffffffffff81116115a65760051b60200190565b6000198114611b725760010190565b634e487b7160e01b600052601160045260246000fd5b80518210156117165760209160051b010190565b60018060a01b03169060009180835260086020526040832082845260205260ff60408420541615611c025791604091611be5938252600560205282822090825260205220611ac6565b60e081015115159081611bf6575090565b60c09150015142111590565b505090565b60038110156114745780611c9d5750600354604051630462fa6d60e31b8152613a986004820152662386f26fc10000602482015290602090829060449082906001600160a01b03165afa908115611c9157600091611c63575090565b906020823d8211611c89575b81611c7c602093836115bc565b810103126103bb57505190565b3d9150611c6f565b6040513d6000823e3d90fd5b60018103611cf35750600354604051630462fa6d60e31b815261afc86004820152666a94d74f430000602482015290602090829060449082906001600160a01b03165afa908115611c9157600091611c63575090565b600203611d4957600354604051630462fa6d60e31b81526201d4c0600482015267011c37937e080000602482015290602090829060449082906001600160a01b03165afa908115611c9157600091611c63575090565b60405162461bcd60e51b8152602060048201526012602482015271496e76616c696420626f6f7374207479706560701b6044820152606490fd5b60038110156114745780611d9957506201518090565b60018103611da9575062093a8090565b600203611d495762278d009056fea264697066735822122019bdf51dbf7a511719e69a4abaa69f3b46f66c70da2daefc105927c51af29aab64736f6c63430008140033",
  "linkReferences": {},
  "deployedLinkReferences": {}
}